:100000000C9463000C949E180C94CB180C948B00E9
:100010000C948B000C948B000C948B000C948B0034
:100020000C948B000C948B000C948B000C948B0024
:100030000C948B000C948B000C948B000C948B0014
:100040000C9489170C948B000C94BC1B0C94FF1B14
:100050000C948B000C948B000C948B000C948B00F4
:100060000C948B000C948B00000000070002010030
:100070000003040600000000000000000102040864
:100080001020408001020408102001020408102002
:10009000040404040404040402020202020203032E
:1000A00003030303000000002300260029000000D2
:1000B0000000250028002B0000000000240027007D
:1000C0002A00CA06BB1C11241FBECFEFD8E0DEBF3A
:1000D000CDBF12E0A0E0B1E0ECE8F5E402C005908D
:1000E0000D92A230B107D9F714E0A2E0B2E001C04E
:1000F0001D92A732B107E1F710E0C6ECD0E004C0D2
:100100002297FE010E94CD1FC23CD107C9F70E9471
:10011000171B0C94C4220C940000EF92FF920F93D3
:100120001F93CF93DF93CDB7DEB72C970FB6F8941C
:10013000DEBF0FBECDBFE982FA820B831C832D8305
:100140003E834F83588769877A878B879C876AE2CB
:1001500071E08DE793E00E9436194B815C816D81DF
:100160007E812AE030E08DE793E00E94101A8F81B3
:10017000882319F06FE271E009C04AE050E06A8517
:100180008DE793E00E941D1A6EE771E08DE793E022
:100190000E943619888599858130910541F0823019
:1001A000910541F0892B61F462E371E005C067E3DA
:1001B00071E002C06BE371E08DE793E00E943619B5
:1001C0008B85882339F04AE050E06C858DE793E019
:1001D0000E941D1A6EE771E08DE793E00E943619C8
:1001E00069817A814AE050E08DE793E00E94241A09
:1001F0008DE793E02C960FB6F894DEBF0FBECDBF0F
:10020000DF91CF911F910F91FF90EF900C943F19C8
:100210001F93CF93DF93EC01162F0E941B07682FCB
:1002200070E080E090E00E940218612FCE01DF9123
:10023000CF911F910C944E0744ED62E086E10E943D
:10024000BE0C83E10E94E10B8CE796EA0E94480B0A
:100250008AE00C94290C40E855E260E070E08DE7FC
:1002600093E00E943A1C60E471E08DE793E00E9405
:100270003619E5E7F2E0A1E6B2E0119211921D9283
:100280001D921D921D9282E0EF37F807B1F74DEAFB
:1002900062E086E10E94210D0E941C0180E992E04B
:1002A0000E94A80784EB92E00E9438144DE850E0C9
:1002B00062E081E00C941C14FC0180E051E3615089
:1002C00078F09F012F5F3F4F408198E0742F78278F
:1002D000880F77FD8527440F9150C1F7F901EFCFC3
:1002E0000895CF93DF93EC018A3091052CF460E3FD
:1002F0008DE793E00E9438194AE050E0BE018DE797
:1003000093E0DF91CF910C94081A0E9495114AE076
:1003100050E0BC018DE793E00E94081A69E671E0A5
:100320008DE793E00E9436190E948D110E947101A1
:1003300069E671E08DE793E00E9436190E9485110D
:100340000E9471016BE671E08DE793E00E9436191F
:100350000E946D110E9471016DE671E08DE793E0DE
:100360000E9436190E9475110E9471016DE671E0BC
:100370008DE793E00E9436190E947D110E94710161
:100380006BE671E08DE793E00C943619282F2295E7
:100390002F708F7090E03AE0239F800D911D112403
:1003A00008958F929F92AF92BF92CF92DF92EF9279
:1003B000FF920F931F93CF93DF93EC018D810E94E7
:1003C000C6017C018E818F710E94C6018C018F81D4
:1003D0000E94C6014C018C810E94C6015C018B8188
:1003E0000E94C6016C018A818F730E94C60194012C
:1003F000A501B6010E9499116FE671E08DE793E0C7
:100400000E9436190E9485018DE793E0DF91CF911C
:100410001F910F91FF90EF90DF90CF90BF90AF9022
:100420009F908F900C943F192F923F924F925F9222
:100430006F927F928F929F92AF92BF92CF92DF92F4
:10044000EF92FF920F931F93CF93DF93CDB7DEB759
:1004500027970FB6F894DEBF0FBECDBF4B015C01EE
:10046000142F19010E94E21D2B013C015F926F9332
:1004700084E791E09F938F931F920F933F922F9267
:100480000E94E51F0FB6F894DEBF0FBECDBF11234B
:1004900009F47CC067E771E0C1010E94DA1F0FEF29
:1004A000010FC12CD12C7601C394115048F0AAE061
:1004B000B0E0A70196010E943F1F6B017C01F5CFC0
:1004C00020E030E0A901C501B4010E94C51E6624E8
:1004D00057FC6094762C87FD09C0C301B2010E94CD
:1004E000151E9B01AC01C501B40106C0C301B201D8
:1004F0000E94151EA50194010E94111D4B015C0173
:10050000C701B6010E94131E9B01AC01C501B401D5
:100510000E94C91E0E94E71D162FB72EA82E992EE5
:100520002AE0C22ED12CE12CF12CA70196010E94C9
:100530008A1FCA01B901211531054105510511F084
:100540000150F3CF002339F069E771E0C1010E9447
:10055000DA1F0150F7CF9F92AF92BF921F9384E7AB
:1005600091E09F938F931F9287E08F938E010F5F8F
:100570001F4F1F930F930E94E51FB801C1010E94F6
:10058000DA1F0FB6F894DEBF0FBECDBF27960FB6A9
:10059000F894DEBF0FBECDBFDF91CF911F910F91B9
:1005A000FF90EF90DF90CF90BF90AF909F908F9093
:1005B0007F906F905F904F903F902F9008952F9273
:1005C0003F924F925F926F927F928F929F92AF92E3
:1005D000BF92CF92DF92EF92FF920F931F93CF9330
:1005E000DF93CDB7DEB7EE970FB6F894DEBF0FBE40
:1005F000CDBF8AAF8B0180E2EAE0F1E0DE01119627
:1006000001900D928A95E1F7FB016181862F90E0C0
:100610009C0154E0359527955A95E1F72080F0E14B
:100620002F9E10011124222A677070E0762F662712
:10063000F8012281622BF3E095958795FA95E1F711
:1006400080FF03C0719561957109882777FD8095BA
:10065000982F0E94151E2DEC3CEC4CEC5DE30E94A3
:10066000C91E2B013C01F8013380F32DFF773F2E8B
:10067000F801648170E080E090E00E94151E2BE795
:1006800034E14EEA5EE30E94C91E4B015C01F801B1
:10069000658170E080E090E00E94151E2BE734E158
:1006A0004EEA5EE30E94C91E6B017C01F80166817F
:1006B0006F7070E0762F66278781682B882777FD1B
:1006C0008095982F0E94151E2AE939E949E95EE3D1
:1006D0000E94C91E6BAF7CAF8DAF9EAFFAADF832F2
:1006E00021F4F80110851F7001C010E006E09E01A2
:1006F0002C5C3F4F41E0C301B2010E9414029E01F5
:10070000225D3F4F41E0C501B4010E9414029E01E9
:10071000285D3F4F41E0C701B6010E94140207E087
:100720009E012F5D3F4F41E06BAD7CAD8DAD9EAD29
:100730000E941402FAADF83209F059C06BE771E07B
:100740008DE793E00E9436194AE050E0622D8DE774
:1007500093E00E941D1A6EE771E08DE793E00E941E
:10076000361922E030E0B301A2018DE793E00E9448
:10077000151B6EE771E08DE793E00E9436194AE0A1
:1007800050E0632D8DE793E00E941D1A6EE771E043
:100790008DE793E00E94361922E030E0B501A40114
:1007A0008DE793E00E94151B6EE771E08DE793E003
:1007B0000E94361922E030E0B701A6018DE793E0F0
:1007C0000E94151B6EE771E08DE793E00E943619D9
:1007D000FE013196E10FF11DE10FF11D6081718184
:1007E0008DE793E00E9436196EE771E04AC04AAD8A
:1007F0004A3209F051C060E871E08DE793E00E9451
:1008000036194AE050E0622D8DE793E00E941D1AF0
:1008100068E871E08DE793E00E94361922E030E04D
:10082000B301A2018DE793E00E94151B6CE871E013
:100830008DE793E00E9436194AE050E0632D8DE782
:1008400093E00E941D1A63E971E08DE793E00E9436
:10085000361922E030E0B501A4018DE793E00E9453
:10086000151B6AE971E08DE793E00E94361922E0DA
:1008700030E0B701A6018DE793E00E94151B61EA05
:1008800071E08DE793E00E943619BE016F5D7F4FE6
:100890008DE793E00E945319EE960FB6F894DEBFF1
:1008A0000FBECDBFDF91CF911F910F91FF90EF90C1
:1008B000DF90CF90BF90AF909F908F907F906F9080
:1008C0005F904F903F902F9008954F925F926F925C
:1008D0007F928F929F92AF92BF92CF92DF92EF92D0
:1008E000FF920F931F930E944A0B882309F462C062
:1008F00080910E028F5F80930E028091C90290E07A
:1009000024E0959587952A95E1F785309105ACF11E
:100910008730910524F00A970297B8F02EC0109105
:10092000D10268E089EC92E00E945C0191E0181726
:1009300011F090E005C080910F028F5F80930F024D
:100940008AE28093030289E015C01091D20269E027
:1009500089EC92E00E945C0191E0181711F090E0A0
:1009600005C080910F028F5F80930F0288E2809311
:1009700003028AE08093000101C090E080911002A0
:10098000811118C09923B1F00E94D317609311020E
:1009900070931202809313029093140281E080936B
:1009A00010028AE0E9ECF2E0A4E0B2E001900D92DE
:1009B0008A95E1F780911002882329F10E94D317CC
:1009C0000091110210911202209113023091140231
:1009D000601B710B820B930B6333710581059105CD
:1009E0000CF080C110C021E04091570265E172E037
:1009F00081E00E94A10C0E941C0110920E02109234
:100A00000F02109210020E94D3176093830270931A
:100A10008402809385029093860200917F02109158
:100A2000800220918102309182026B017C01C01A08
:100A3000D10AE20AF30A009101011091020120910A
:100A40000301309104010C151D052E053F0508F02A
:100A500092C160937F027093800280938102909391
:100A6000820260E080E992E00E94080161E080E992
:100A700092E00E94080140915F0250916002BA0129
:100A8000660F771F6B587D4F8091590290915A02E3
:100A9000FB0120813181821B930B90935A0280933A
:100AA0005902440F551F440F551F4F595D4F8091F8
:100AB0005B0290915C02A0915D02B0915E02FA012E
:100AC0000081118122813381801B910BA20BB30B1A
:100AD00080935B0290935C02A0935D02B0935E02F0
:100AE00080E992E00E94F307E0915F02F0916002DA
:100AF000DF01AA0FBB1FAB58BD4F809159029091E7
:100B00005A022D913C91820F931F90935A02809329
:100B10005902DF01AA0FBB1FAA0FBB1FAF59BD4F60
:100B200000915B0210915C0220915D0230915E02A7
:100B30004D915D916D917C91040F151F261F371FFC
:100B400000935B0210935C0220935D0230935E027F
:100B50003196F0936002E0935F0235973CF041E0FC
:100B6000409358021092600210925F0265E070E0BC
:100B70000E94761F7093880260938702C901B801B2
:100B800025E030E040E050E00E94AC1F2093890255
:100B900030938A0240938B0250938C0280915802CA
:100BA000882309F440C06CEC71E08DE793E00E946B
:100BB00036196091870270918802882777FD8095A9
:100BC000982F0E94151E20E030E040E251E40E9480
:100BD0007A1DAB01BC0122E030E08DE793E00E947A
:100BE000151B6EE771E08DE793E00E943619609166
:100BF000890270918A0280918B0290918C020E94EE
:100C0000151E20E030E048EC52E40E947A1DAB0152
:100C1000BC0122E030E08DE793E00E94151B8DE7D8
:100C200093E00E943F1984EB92E00E9483166B01CF
:100C30007C0160E084EB92E00E940F164B015C01A6
:100C4000AB01BC0184EB92E00E944A14AB01BC01F1
:100C50009701860184EB92E00E947414AB01BC0101
:100C600084EB92E00E945F142B013C0161ED71E086
:100C70008DE793E00E94361922E030E0B501A4012F
:100C80008DE793E00E94151B6EE771E08DE793E01E
:100C90000E94361922E030E0B701A6018DE793E00B
:100CA0000E94151B6EE771E08DE793E00E943619F4
:100CB00022E030E0B301A2018DE793E00E94151B12
:100CC0008DE793E01F910F91FF90EF90DF90CF9011
:100CD000BF90AF909F908F907F906F905F904F905C
:100CE0000C943F191091040212951F701B3011F0E3
:100CF000163021F484E092E00E94D1011A3011F004
:100D0000153031F464E072E0809103020E94DF024A
:100D10008091020291E0980F909302028093150255
:100D20008091030280931602109100011093170224
:100D3000412F50E064E072E088E192E00E94D11F10
:100D4000A3E0A10FB0E0AB5EBD4F86E0E7E8F2E0C4
:100D500001900D928A95E1F7175F109357024DEAC3
:100D600062E086E10E94BE0C0E94320C81113BCEF3
:100D70000E944A0BF9CF1F910F91FF90EF90DF90E7
:100D8000CF90BF90AF909F908F907F906F905F902B
:100D90004F90089526E046E166E084EB92E00E94E1
:100DA000311441E062E082EB92E00E94EE0982EBB6
:100DB00092E090939102809390028EEE8093920243
:100DC00083E08093B10210928F0208950F931F93D6
:100DD000CF93DF93EC01062F60E0888199810E9418
:100DE0005A0A182F602F888199810E945A0A212F50
:100DF00030E0322F2227A901482BCA01DF91CF9181
:100E00001F910F9108951F93CF93DF93EC01162F3D
:100E10006A81888199810E94450A612F8881998120
:100E20000E940E0A6A81616088819981DF91CF9169
:100E30001F910C94450A1F93CF93DF93EC01162F5B
:100E40006A81888199810E94450A64EF888199812D
:100E50000E940E0A112339F069A180E4689FB00155
:100E60001124646301C06EE2888199810E940E0A98
:100E7000888199810E94FF0989A1882331F08130FE
:100E800031F0823031F48EE005C085E003C088E0A7
:100E900001C08AE1DF91CF911F910895FF920F93D6
:100EA0001F93CF93DF93EC01F62E66EF0E940307AA
:100EB000F1100BC061E0CE010E94E606A0E0B0E0B8
:100EC000898F9A8FAB8FBC8F34C060E0CE010E94B7
:100ED000E606AC0160E070E009A004C0440F551FB5
:100EE000661F771F0A94D2F74D8F5E8F6F8F78A39E
:100EF00061E0888199810E945A0A082F10E029A197
:100F000088E090E0821B910902C0159507958A95AB
:100F1000E2F7222717FD2095322F4D8D5E8D6F8DC4
:100F200078A1402B512B622B732B4D8F5E8F6F8FCF
:100F300078A384E0F89EC00DD11D1124698D7A8DAF
:100F40008B8D9C8DDF91CF911F910F91FF90089514
:100F5000CF93DF93EC016AEA0E94030760E0CE01C1
:100F60000E94E6069C838B8360E0CE010E94E60629
:100F70009E838D8360E0CE010E94E60698878F8372
:100F800060E0CE010E94E6069C8B8B8B60E0CE0178
:100F90000E94E6069E8B8D8B60E0CE010E94E606E5
:100FA000988F8F8B60E0CE010E94E6069A87898732
:100FB00060E0CE010E94E6069C878B8760E0CE0150
:100FC0000E94E6069E878D8760E0CE010E94E606BD
:100FD000988B8F8761E0CE010E94E6069A8B898B01
:100FE000DF91CF9108953F924F925F926F927F92DF
:100FF0008F929F92AF92BF92CF92DF92EF92FF9229
:101000000F931F93CF93DF93CDB7DEB72C970FB617
:10101000F894DEBF0FBECDBF9C878B877B018A0112
:10102000DC015D968D919D910D90BC91A02D8D83DD
:101030009E83AF83B887EB85FC858789908D218D52
:10104000328D438D548D281B390B41095109A589D7
:10105000B6890E943F1F4B015C01AFE0B594A79495
:1010600097948794AA95D1F767857089882777FD2B
:101070008095982FBBE0660F771F881F991FBA9540
:10108000D1F721893289442737FD4095542F280D07
:10109000391D4A1D5B1D0E94AC1F280D391D4A1DBC
:1010A0005B1DDA01C9010896A11DB11D64E0B5956B
:1010B000A795979587956A95D1F7F70191838083D6
:1010C00029013A01F0EA4F1AFFE05F0A610871084E
:1010D000A3019201C301B2010E94521F6B017C0166
:1010E0007CE0F594E794D794C7947A95D1F7AB85D3
:1010F000BC8513960D90BC91A02DBA87A987EB856E
:10110000FC8531A0A781B0850E944A1F4B015C017C
:10111000ADE0B594A79497948794AA95D1F7A1854B
:10112000B285A70196010E944A1FBB2797FDB09583
:10113000AB2F880E991EAA1EBB1EF2E08F0E911CCB
:10114000A11CB11C82E0B594A794979487948A95CA
:10115000D1F780E8980EA11CB11CEB85FC85A38912
:10116000B489A50194010E943F1FDC01CB012FE04F
:10117000B695A795979587952A95D1F789839A83F0
:10118000AB83BC83E985FA854F01AA2497FCA09420
:10119000BA2C32E0880C991CAA1CBB1C3A95D1F7DA
:1011A000EB85FC85A385B485A70196010E944A1FA3
:1011B0006B017C014BE0F594E794D794C7944A9572
:1011C000D1F7A581B681A30192010E944A1F5BE07D
:1011D00095958795779567955A95D1F7C60ED71E41
:1011E000E81EF91E8C0C9D1CAE1CBF1C032C04C0F9
:1011F000880C991CAA1CBB1C0A94D2F7F2E08F0E33
:10120000911CA11CB11C62E0B594A794979487949B
:101210006A95D1F78D819E81AF81B885881999092A
:10122000AA09BB098D839E83AF83B88760E573EC01
:1012300080E090E004C095958795779567953A94FE
:10124000D2F72D813E814F8158850E94521F97FD14
:101250000DC0660F771F881F991F29813A814B8126
:101260005C810E948A1F49015A010CC029813A8180
:101270004B815C810E948A1F49015A01880C991C8C
:10128000AA1CBB1C9927B7FC9A958B2D7A2D692D2A
:101290009B01AC010E94521F9B01AC01AEEDBBE073
:1012A0000E943F1F6C01FF24D7FCF094EF2CA3E4B5
:1012B000B3EEA50194010E944D1FBB2797FDB09589
:1012C000AB2FC80ED91EEA1EFB1E9FECC90E9EE076
:1012D000D91EE11CF11C54E0F594E794D794C7940F
:1012E0005A95D1F7C80CD91CEA1CFB1CD801CD9229
:1012F000DD92ED92FC9213972C960FB6F894DEBF18
:101300000FBECDBFDF91CF911F910F91FF90EF9056
:10131000DF90CF90BF90AF909F908F907F906F9015
:101320005F904F903F900895FC018081882311F0D9
:101330008D5F01C082E10C94F116FC01808188234D
:1013400011F08D5F01C082E10E9460170895FC01D9
:101350008081882311F08D5F01C082E10C942A17EF
:10136000FC018081882311F0835F01C083E10C942C
:10137000F116FC018081882311F0835F01C083E1B5
:101380000C942A171F93CF93DF93EC01162F61E083
:10139000111160E0CE010E949409612FCE01DF910E
:1013A000CF911F910C94A709CF93DF93EC01898112
:1013B00090E00E94281861E0CE01DF91CF910C945B
:1013C000B909CF93DF93EC01898190E00E9428183E
:1013D00060E0CE01DF91CF910C94B909CF93DF93F8
:1013E000EC016883498361E00E94C20961E0CE019B
:1013F0000E94B009CE01DF91CF910C94D409CF9314
:10140000DF93EC0160E00E94C209CE010E94D40982
:1014100061E0CE01DF91CF910C94C209EF92FF926F
:101420000F931F93CF93DF93EC01E62E0E94E10907
:1014300008E010E040E8F42E6F2D6E21CE010E94EE
:10144000C209CE010E94D409CE010E94E109F6949E
:10145000015011090115110579F761E0CE010E94D3
:10146000C209CE010E94D409CE010E949D09182F05
:10147000CE010E94E10981E0111180E0DF91CF915E
:101480001F910F91FF90EF9008951F93CF93DF93DB
:10149000EC01162F0E94E109CE010E94D40960E000
:1014A000CE010E94C209612FCE01DF91CF911F9121
:1014B0000C940E0ADF92EF92FF920F931F93CF933B
:1014C000DF93EC01D62E08E010E050E8E52EF12C79
:1014D000CE010E94D409CE010E949D098111FE28EF
:1014E000CE010E94E109E694015011090115110590
:1014F00079F76D2DCE010E94C209CE010E94D40958
:10150000CE010E94E109DD2019F0CE010E94FF0901
:1015100061E0CE010E94C2098F2DDF91CF911F9112
:101520000F91FF90EF90DF9008958627682F6295C6
:101530006827062E669566956025062E66956025B9
:101540006770082E892F669507946795902D8627DA
:10155000069467959025862708958EBD0DB407FEE5
:10156000FDCF8EB50895CF92DF92EF92FF921F9339
:10157000CF93DF93182FE89885B1C12CD12C760139
:10158000C394B701A6010090050104C0440F551F84
:10159000661F771F0A94D2F74095482345B9892FD3
:1015A0000E94AD0AC82FD0E0DC2FCC27812F0E94EB
:1015B000AD0A95B10090050104C0CC0CDD1CEE1CF9
:1015C000FF1C0A94D2F79C2995B9E89A9E01282B12
:1015D000C901DF91CF911F91FF90EF90DF90CF90E5
:1015E000089580911703909118038F7090931803BA
:1015F000809317038091170390911803886090934C
:1016000018038093170380911703909118030C948B
:10161000B30A25B181E090E0A0E0B0E0AC01BD01EB
:101620000090050104C0440F551F661F771F0A94E0
:10163000D2F7242B25B924B10090050104C0880FEE
:10164000991FAA1FBB1F0A94D2F7282B24B961E067
:101650008AE00E942A1761E08AE00E94F11661E0A8
:101660008BE00E94F11660E08CE00E94F11661E0D0
:101670008DE00E94F11680E58CBD8DB581608DBD39
:1016800060E082E00E94F11661E082E00C942A178B
:101690000C94B30A809119038730D1F5809111031E
:1016A000882359F090911A03981708F064C080912C
:1016B0001A03873408F05FC02BC08091CA022091C2
:1016C0001A0390E0049630E08217930724F080918B
:1016D0001A038734E8F084E0809319038091CA02EA
:1016E000833430F081E090E09093100380930F03F7
:1016F0008091C90286FF49C090911D03892F8F7187
:101700008F3109F442C08091C90289278F71E9F1B4
:1017100080911903843069F51092CA0210921A035D
:101720008FEF9FEF9093100380930F0360911C0342
:10173000662331F00E94950A9093100380930F0363
:1017400087E08093190381E08093130383EA94E98F
:101750000E94B30A8091170390911803886D9093AB
:1017600018038093170380911703909118030E9428
:10177000B30A80E0089584E08093190381E090E04B
:101780009093100380930F031AC080910F039091E0
:101790001003892B49F4E091C202F091C302309703
:1017A00019F080E009950BC08FEF9FEFDC0180936B
:1017B000C4029093C502A093C602B093C70281E011
:1017C00008950F931F93CF93C82F082F10E0C801DF
:1017D000966C0E94B30ACF772C2F30E02F5F3F4FDB
:1017E000442737FD4095542F6BEF72E485E090E07D
:1017F0000E948A1FCA01B9019801220F232F221FBC
:10180000330B47E0429F8001439F100D11240F5F6F
:101810001F4F9801442737FD4095542F0E948A1F7F
:1018200013E056954795379527951A95D1F72D577B
:101830003C4F4F4F5F4FCA01B90124E833E040E00D
:1018400050E00E948A1F20931203CF911F910F91A5
:101850000895811103C01092110308958F5F809342
:101860001103089580911903873021F480911A03A0
:10187000882311F080E008950E94F10A84E08093AB
:10188000190381E0089586FD05C0807E90911D03B7
:101890009F71890F8093C902E091C202F091C30247
:1018A000309711F081E009958FEF9FEF909310032F
:1018B00080930F0380910F039091100360911C039C
:1018C0000E94950A9093100380930F0388E0809301
:1018D000190380911703909118038863909318035C
:1018E0008093170380911703909118030C94B30A07
:1018F000CF93C82F4093CA0250E08BEC92E00E9435
:10190000D11F8C2FCF910C94430C909119039430DC
:10191000B9F08823D1F393B7917F833021F08230DF
:1019200021F42CE003C024E001C020E0922B93BFFF
:1019300093B7916093BF889593B79E7F93BFE5CF90
:101940000895CF93DF931F92CDB7DEB729830E940E
:10195000780C2981822F0F90DF91CF910C94850C08
:1019600080911D038F7139F040E050E060EB7DE025
:1019700080E00C946E1880E00C948E18CF938093C6
:101980001D0340931C0360931B030E94B00C109234
:101990001103E89885E092E8909318038093170369
:1019A00080911703909118030E94B30A80911B0342
:1019B00020E1829FC0011124876C90680E94B30AC5
:1019C00080E496EA0E94B30A86E00E94E10B82EA74
:1019D00094E90E94B30A8CEA92EC0E94B30AC09187
:1019E0001C03CC2341F083E89AEC0E94B30A8C2FAD
:1019F00090E09E6C06C08BE89AEC0E94B30A8DE2E0
:101A00009EEC0E94B30A83E894EC0E94B30A80E53E
:101A100098E90E94B30A87E79CEC0E94B30A80E031
:101A200090EE0E94B30A80E098EC0E94B30A89E429
:101A300090EC0E94B30A84E080931903E89ACF9156
:101A400008951F93CF93DF9300D0CDB7DEB7182F43
:101A500080931D0340931C0360931B034A83698397
:101A60000E94090B0E94B00C82E89AEC0E94B30A13
:101A700080E09EEF0E94B30A85E08093190393B73C
:101A8000917F93BF4A81698180911903853041F428
:101A900093B7916093BF889593B79E7F93BFF4CF20
:101AA000812F0E94BE0C80911D030F900F90DF913B
:101AB000CF911F910895CF92DF92EF92FF92CF9333
:101AC0006B017C01C0E08FEFC816D104E104F10482
:101AD00039F030F0CF5FF694E794D794C794F3CF02
:101AE000209117033091180321FF0FC02091170395
:101AF000309118032D7F30931803209317038091A2
:101B00001703909118030E94B30AC114D104E10491
:101B1000F10401F180EED82A8C2F992787FD90954A
:101B2000982F88278C299D290E94B30A809117033A
:101B3000909118038260909318038093170380910B
:101B4000170390911803CF91FF90EF90DF90CF9003
:101B50000C94B30ACF91FF90EF90DF90CF9008954F
:101B60001F93CF93DF93E89885B141E050E060E0A8
:101B700070E00090050104C0440F551F661F771FD9
:101B80000A94D2F74095482345B980E00E94AD0AF7
:101B9000C82FD0E0DC2FCC2780E00E94AD0AC82BF4
:101BA000D7FF05C080911903873009F4F1C095B1C2
:101BB00041E050E060E070E00090050104C0440F97
:101BC000551F661F771F0A94D2F7942B95B9E89A90
:101BD000D0931603C093150320911503309116037B
:101BE00037FFB3C080911903873009F060C080913E
:101BF0001A03811104C080911C038111D4C0E091AB
:101C00001A0381E08E0F80931A03F0E0E853FD4F32
:101C1000108380910F0390911003612F0E94950A09
:101C20009093100380930F0340911303433020F5EA
:101C300080911A0390E002976091120370E00E9475
:101C4000761F892BC9F42091150330911603842F38
:101C500090E030FFB3C0FC01EA52FE4F80818F70EC
:101C600080931303833040F490E0880F991F01960E
:101C7000806A94690E94B30A80911103882331F02D
:101C800090911A03981708F09FC00BC08091CA0268
:101C900020911A0390E0049630E0821793070CF429
:101CA00093C080911A03873408F08EC04EC0809193
:101CB000190387FF1AC0E091CA028091190391E0CD
:101CC000980F90931903ED5FE80FF0E0E853FD4F94
:101CD000C08180910F03909110036C2F0E94950A90
:101CE0009093100380930F032BC08091190391E010
:101CF000980F90931903833001F154F48823B9F0BD
:101D00008130E9F480910F0390911003C92F18C01E
:101D10008B3059F08C3099F4C0911C039091CA0219
:101D20008EEF891B809319030BC0CDE209C080910F
:101D30000F0390911003C82F03C00E94F10ACAEA52
:101D40008C2F90E0986B0E94B30A809115039091BC
:101D5000160396FF03C086E0809319038091150354
:101D60009091160394FF08C060E070E0CB010E94E0
:101D70005B0D81E08093140380911503909116030D
:101D800095FF25C00E94F10A84E0809319031FC0CB
:101D90008CB581608CBD80E00E94AD0A182F9CB587
:101DA0009E7F9CBD04CFE0911A0391E09E0F90931B
:101DB0001A03F0E0E853FD4F808321CFFC01EA5283
:101DC000FE4F808182954BCF0E94F10ABECFDF91FA
:101DD000CF911F9108956F927F928F929F92AF92B1
:101DE000BF92CF92DF92EF92FF920F931F93CF9308
:101DF000DF93EA012CE3C22ED12CE12CF12CA701B8
:101E000096010E948A1F6883CA01B901A701960141
:101E10000E948A1F6983CA01B90128E130E040E0CD
:101E200050E00E948A1F49015A016A83CA01B90120
:101E30006C5F7F4F8F4F9F4F27E030E040E050E0D6
:101E40000E948A1F6F5F6B8300E010E0980140E002
:101E500054E6652E712C60E9C62EDD24D394E42F60
:101E6000F0E0EE54F84F7F0183E0E822FF24E11414
:101E7000F10489F4CF01B3010E94761F892B29F068
:101E80008EE691E0A0E0B0E00AC0CF01B6010E946A
:101E9000761F892BA9F38DE691E0A0E0B0E0080F52
:101EA000191F2A1F3B1FD901C801AA27BB27881663
:101EB0009906AA06BB0610F04F5FD1CF4E83E114FE
:101EC000F10499F4CF0164E670E00E94761F892B3B
:101ED00029F08EE691E0A0E0B0E00BC0CF0160E910
:101EE00071E00E94761F892BA1F38DE691E0A0E0BE
:101EF000B0E0081B190B2A0B3B0B801A910AA20AAF
:101F0000B30ACF0164E670E00E94761F9C01CF0106
:101F100060E971E00E94761FE9EDF1E0A0E0A130F8
:101F200059F4E114F10451F42115310511F04DE19A
:101F300006C00097E1F302C0408101C04CE150E0CF
:101F400060E070E084169506A606B70640F0841A95
:101F5000950AA60AB70AAF5F3196AC3001F7AF5FBA
:101F6000AD8383948C82DF91CF911F910F91FF906D
:101F7000EF90DF90CF90BF90AF909F908F907F9029
:101F80006F900895CF92DF92EF92FF926B017C01E8
:101F900080912E0390912F03A0913003B0913103D3
:101FA000C816D906EA06FB0671F042E353E0C70102
:101FB000B6010E94EB0EC0922E03D0922F03E09246
:101FC0003003F0923103FF90EF90DF90CF900895AF
:101FD0000E94C20F8091380390E08E54984F08956C
:101FE0006F927F928F929F92AF92BF92CF92DF9229
:101FF000EF92FF920F931F93CF93DF93FC01C68064
:10200000AC2DB0E020E833E341EE51E00E943F1FE9
:102010004B015C0122EB37E06D01C4E6D0E000E942
:1020200011E0C901825B97408C159D05DCF4C90164
:1020300083709927892B99F4C901BE010E94761FEC
:10204000892B31F4C901B8010E94761F892B39F41C
:1020500080E8880E81E5981E81E0A81EB11C2F5FE4
:102060003F4FDFCF6580712C8EE4C81A88EFD80A05
:10207000C60164E670E00E94761F8C01C60160E92B
:1020800071E00E94761F7C01C1E0D0E083E0C822AD
:10209000DD24C615D7052CF5C230D10589F4C1144D
:1020A000D10471F40115110519F4E114F10441F49E
:1020B00080E8880E8BE3981E86E2A81EB11C0FC034
:1020C000DE01A852BE4FAC91B0E020E831E541E01E
:1020D00050E00E943F1F860E971EA81EB91E219633
:1020E000D8CF4181228130E0A0E1BEE00E94301FC4
:1020F0006B017C01242F30E0ACE3B0E00E94301F84
:10210000C60ED71EE81EF91E8081C80ED11CE11C28
:10211000F11CA481B0E0119720E831E541E050E0E6
:102120000E944A1FC60ED71EE81EF91EC80CD91CF5
:10213000EA1CFB1CC701B601DF91CF911F910F91E3
:10214000FF90EF90DF90CF90BF90AF909F908F90D7
:102150007F906F9008950F931F9360932A0370935D
:102160002B0380932C0390932D0300910601109173
:1021700007012091080130910901060F171F281F40
:10218000391F0093220310932303209324033093D9
:10219000250382E090E090932103809320030E9426
:1021A000D31760932603709327038093280390939B
:1021B00029031F910F910895CF92DF92EF92FF9222
:1021C0000F931F930E94D317C0902603D09027032C
:1021D000E0902803F09029036C197D098E099F096E
:1021E00000912A0310912B0320912C0330912D0391
:1021F000683E734081059105D8F00F5F1F4F2F4F48
:102200003F4F00932A0310932B0320932C0330930A
:102210002D0348EEC40E43E0D41EE11CF11CC09215
:102220002603D0922703E0922803F0922903CACF15
:102230008091220390912303A0912403B091250360
:10224000081719072A073B07C8F1E0911E03F09110
:102250001F03309799F10995611571058105910565
:1022600019F00E94AB102AC08091060190910701DD
:10227000A0910801B091090140912A0350912B03CC
:1022800060912C0370912D03840F951FA61FB71F1B
:102290008093220390932303A0932403B0932503F8
:1022A00081E090E02091200330912103232B11F451
:1022B00080E090E0909321038093200360912A03B3
:1022C00070912B0380912C0390912D031F910F91FE
:1022D000FF90EF90DF90CF9008950E94DC100E9455
:1022E000C20F8091340390E008950E94DC100E9498
:1022F000C20F8091330390E008950E94DC100E9489
:10230000C20F8091320390E008950E94DC100E9479
:10231000C20F8091360390E008950E94DC100E9465
:10232000C20F8091370390E008950E94DC100C9456
:10233000E80FEF92FF920F9394E6E916F1042CF068
:1023400092EBE91A97E0F90A03C09EE1E90EF11C4D
:10235000E0923803009337032093360380933403CD
:10236000609333034093320382E393E00E94F00FC3
:102370000F91FF90EF900C94AB10CF92DF92EF9201
:10238000FF920F931F9380916803882309F443C23F
:102390008091640390916503A0916603B0916703F7
:1023A0008093600390936103A0936203B0936303EF
:1023B0000E94DF1760936403709365038093660344
:1023C0009093670320915B03222319F010925B0323
:1023D00022C220916D0330916E03C0906003D090B3
:1023E0006103E0906203F090630337FD15C0DC01E8
:1023F000CB018C199D09AE09BF09009159031091B9
:102400005A0320E030E080179107A207B30720F4B9
:1024100081E080935B03FFC180915C0390915D0339
:102420009601281B390BC901C0925C03D0925D0351
:10243000E0925E03F0925F0320916D0330916E0392
:102440002F3F3F4F81F5813C22E1920708F4E3C121
:102450001092580368E270E00E94621FFB017093C3
:102460004D0360934C039B01220F331F260F371F30
:10247000C9016AE070E00E94621F70935A03609382
:10248000590330934B0320934A033093490320931D
:10249000480353E0EE0FFF1F5A95E1F7F09347030F
:1024A000E093460329C120916D0330916E03232BE5
:1024B000A9F420914A0330914B032817390708F4F7
:1024C00097C1109257031092550310924E03109229
:1024D0004F0310925003109251030EC120916D03CF
:1024E00030916E0321303105C9F420914C033091B5
:1024F0004D0367E0629FA001639F500D1124841774
:10250000950708F475C16FE0629FA001639F500DAD
:1025100011244817590708F0EFC06AC120916D03D4
:1025200030916E03243931050CF0E6C0609145030B
:10253000660F6093450320914A0330914B0328179F
:10254000390710F06E700FC0209148033091490395
:1025500082179307B8F0209146033091470328175C
:10256000390780F061606093450380916D0390911D
:102570006E0364E070E00E94761F8130910509F0DF
:10258000BBC02BC020914C0330914D0374E1729F6E
:10259000A001739F500D11248417950708F428C1DA
:1025A00070E5729FA001739F500D112448175907C1
:1025B00008F41EC161FD1CC180916D0390916E03F2
:1025C0008339910509F4A2C080916D0390916E0347
:1025D0008338910509F00CC199C020916D033091A9
:1025E0006E032A3631053CF580914E0390914F03DE
:1025F000A0915003B0915103880F991FAA1FBB1FD0
:1026000080934E0390934F03A0935003B0935103D4
:10261000209145032F70213009F46EC0243009F059
:10262000E7C0816080934E0390934F03A0935003C3
:10263000B093510361C020916D0330916E032E362B
:1026400031057CF4809145038F70813039F08430FE
:1026500009F0CEC081E0809352034EC01092520325
:102660004BC020916D0330916E0322373105ACF4DD
:10267000209145032F70213021F040F0243041F0AB
:10268000B7C0109254031092530336C082E090E01A
:1026900090935403809353032FC080916D039091C6
:1026A0006E03823891058CF480915503880F8093D6
:1026B0005503909145039F709130F1F0943009F0EB
:1026C00097C081608093550317C080916D039091EE
:1026D0006E038239910584F480915703880F8093AB
:1026E0005703909145039F70913031F0943009F079
:1026F0007FC081608093570380916D0390916E033A
:10270000019690936E0380936D0385C080916D0355
:1027100090916E038339910519F481E080935603FB
:1027200040914E0350914F036091500370915103BB
:1027300080913B0390913C03A0913D03B0913E03F7
:10274000481759076A077B0709F055C09091550350
:102750008091420398134FC0909156038091430398
:10276000981349C09091570380914403981343C034
:102770009091520380913F0398133DC020915303E1
:1027800030915403809140039091410328173907F9
:1027900091F5809158038F5F8093580390916C035B
:1027A0008917A8F180916903811122C081E080938B
:1027B0006903E0916A03F0916B03E0904C03F090A1
:1027C0004D0300914E0310914F032091500330911F
:1027D00051034091520350915303609154037091FF
:1027E0005503809156039091570309951092690300
:1027F0008FEF9FEF86CF109258038CE0ECE4F3E06C
:10280000A9E3B3E001900D928A95E1F7C2CF10924F
:102810006E0310926D031F910F91FF90EF90DF9068
:10282000CF9008958FEF9FEF90936E0380936D0389
:1028300081E080936803089580936F0360936C0335
:1028400050936B0340936A030E94121480916F03AC
:1028500087FD06C041E050E06DEB71E10C946E180D
:102860000895FC0166834783208781E0858708956A
:10287000CF93DF93EC0160E08E810E94F11661E05E
:102880008E810E942A1719861A861B861C86DF9164
:10289000CF910895CB01BA0120E030E040E151E44E
:1028A0000E94C91E20E030E040EA50E40E947A1DF8
:1028B00020E030E040E052E40E94121D0895CB0178
:1028C000BA0120E030E040E052E40E94111D20E017
:1028D00030E040EA50E40E94C91E20E030E040E1D0
:1028E00051E40E947A1D08954F925F926F927F92F9
:1028F0008F929F92AF92BF92CF92DF92EF92FF9210
:102900000F931F93CF93DF93CDB7DEB728970FB602
:10291000F894DEBF0FBECDBF6A017B0148015901AB
:102920009A01AB01C701B6010E94C91E2B013C01EF
:10293000A5019401C501B4010E94C91E6D837E8367
:102940008F83988721E133E243E050E4C701B60169
:102950000E94C91E29E134E849E252E40E94111D97
:1029600069837A838B839C8326E13BE442E251E4D2
:10297000C501B4010E94C91E9B01AC0169817A8125
:102980008B819C810E94121D69837A838B839C8337
:1029900028E436E246E65EEBC701B6010E94C91E96
:1029A000A50194010E94C91E9B01AC0169817A8135
:1029B0008B819C810E94121D69837A838B839C8307
:1029C00020EE3FE040EE5BEBC301B2010E94C91E66
:1029D0009B01AC0169817A818B819C810E94121DCF
:1029E00069837A838B839C8328EF37E840E65DEB2D
:1029F0006D817E818F8198850E94C91E9B01AC01EB
:102A000069817A818B819C810E94121D69837A83FE
:102A10008B839C832CEA3DE041EA5AE3C301B20177
:102A20000E94C91EA50194010E94C91E9B01AC0110
:102A300069817A818B819C810E94121D4B015C010E
:102A400028EC3FE84FE55AE3C701B6010E94C91ED2
:102A50002D813E814F8158850E94C91E9B01AC018A
:102A6000C501B4010E94121D6B017C0121EF3BE8FE
:102A700045E056EBC301B2010E94C91E2D813E8183
:102A80004F8158850E94C91E9B01AC01C701B60148
:102A90000E94121D28960FB6F894DEBF0FBECDBF60
:102AA000DF91CF911F910F91FF90EF90DF90CF902A
:102AB000BF90AF909F908F907F906F905F904F905E
:102AC0000895DF92EF92FF920F931F93CF93DF93BE
:102AD000EC010E94D31709851A852B853C85601768
:102AE00071078207930720F419861A861B861C86B5
:102AF0002D85211111C009851A852B853C85DC01A6
:102B0000CB01801B910BA20BB30B803D9740A1051D
:102B1000B10510F481E07BC01D860E94D317698740
:102B20007A878B879C871C821B821A821982188263
:102B300061E08E810E942A176AEF70E080E090E0E9
:102B40000E94021861E08E810E94F11660E08E8181
:102B50000E942A1764E170E080E090E00E94021871
:102B6000F89461E08E810E942A1788E290E00E942A
:102B7000281860E08E810E94F116F12CD12C81E0A2
:102B8000E12C082F10E08E810E94601780179107BA
:102B900041F4E39481E090E00E9428188FEFE8125E
:102BA000F2CF8E810E9460179FEFE916C9F023E0F3
:102BB0002F1590F4F0FC10C09D2D96959695969546
:102BC000FE01E90FF11D9081990F908328852E1544
:102BD00010F491609083D394F39495E5F912D0CFDB
:102BE000789427E22D1590F42C8130E0488189817A
:102BF00090E0840F911D4A81840F911D4B81840FB9
:102C0000911D99272817390709F484CF80E0DF91B7
:102C1000CF911F910F91FF90EF90DF900895CF9289
:102C2000DF92EF92FF920F931F93CF93DF93EC010C
:102C3000162F0E946115882309F450C08F818B30B4
:102C400031F008F44BC08551823078F047C06A817A
:102C500070E080E090E00E94131E112309F443C04D
:102C600020E030E040E151E42AC00A81602F6F7714
:102C700070E080E090E00E94151E20E030E040E827
:102C800053E40E94C91E6B017C016B8170E080E0FF
:102C900090E00E94151E9B01AC01C701B6010E9485
:102CA000121D20E030E040E251E40E947A1D07FD51
:102CB00090581123D9F020E030E040E151E40E9427
:102CC000C91E20E030E040EA50E40E947A1D20E076
:102CD00030E040E052E40E94121D08C020E030E0E5
:102CE00040EC5FE705C09B01AC0102C09B01AC0159
:102CF000B901CA01DF91CF911F910F91FF90EF9021
:102D0000DF90CF900895CF92DF92EF92FF92CF9312
:102D1000DF93EC010E946115882379F18F818B305C
:102D200029F158F18551823040F5688170E080E0EA
:102D300090E00E94131E20E030E040E853E40E943F
:102D4000C91E6B017C01698170E080E090E00E9407
:102D5000151E9B01AC01C701B6010E94121D20E0A7
:102D600030E040E251E40E947A1D0BC0688170E0BF
:102D700080E090E00E94131E04C060E070E080ECF0
:102D80009FE7DF91CF91FF90EF90DF90CF90089574
:102D9000833081F028F4813099F08230A1F00895D9
:102DA0008630A9F08730B9F08430D1F4809180006A
:102DB0008F7D03C0809180008F778093800008957D
:102DC00084B58F7702C084B58F7D84BD08958091CE
:102DD000B0008F7703C08091B0008F7D8093B000EA
:102DE0000895CF93DF9390E0FC01E458FF4F2491C6
:102DF000FC01E057FF4F8491882349F190E0880F50
:102E0000991FFC01E854FF4FA591B49182559F4F43
:102E1000FC01C591D4919FB7611108C0F8948C91C1
:102E2000209582238C93888182230AC0623051F4DA
:102E3000F8948C91322F309583238C938881822B48
:102E4000888304C0F8948C91822B8C939FBFDF9170
:102E5000CF9108950F931F93CF93DF931F92CDB718
:102E6000DEB7282F30E0F901E859FF4F8491F901CE
:102E7000E458FF4F1491F901E057FF4F04910023EC
:102E8000C9F0882321F069830E94C8166981E02F68
:102E9000F0E0EE0FFF1FE255FF4FA591B4919FB7F1
:102EA000F8948C91611103C01095812301C0812B8E
:102EB0008C939FBF0F90DF91CF911F910F91089539
:102EC000CF93DF93282F30E0F901E859FF4F849129
:102ED000F901E458FF4FD491F901E057FF4FC49135
:102EE000CC2391F081110E94C816EC2FF0E0EE0F78
:102EF000FF1FEC55FF4FA591B4912C912D2381E03C
:102F000090E021F480E002C080E090E0DF91CF917A
:102F100008951F920F920FB60F9211242F933F9393
:102F20008F939F93AF93BF9380917103909172039E
:102F3000A0917303B09174033091700323E0230FC9
:102F40002D3720F40196A11DB11D05C026E8230FE1
:102F50000296A11DB11D209370038093710390937D
:102F60007203A0937303B0937403809175039091DF
:102F70007603A0917703B09178030196A11DB11D4E
:102F80008093750390937603A0937703B0937803AF
:102F9000BF91AF919F918F913F912F910F900FBE55
:102FA0000F901F9018952FB7F8946091710370914E
:102FB000720380917303909174032FBF08953FB7FC
:102FC000F8948091750390917603A0917703B09166
:102FD000780326B5A89B05C02F3F19F00196A11DC7
:102FE000B11D3FBF6627782F892F9A2F620F711D61
:102FF000811D911D42E0660F771F881F991F4A951A
:10300000D1F70895CF92DF92EF92FF92CF93DF93A3
:103010006B017C010E94DF17EB01C114D104E104B4
:10302000F10479F00E94DF176C1B7D0B683E734042
:10303000A0F381E0C81AD108E108F108C851DC4FBB
:10304000ECCFDF91CF91FF90EF90DF90CF9008957C
:103050000197009739F0880F991F880F991F0297E1
:103060000197F1F70895789484B5826084BD84B5A2
:10307000816084BD85B5826085BD85B5816085BD73
:10308000EEE6F0E0808181608083E1E8F0E010828C
:10309000808182608083808181608083E0E8F0E0CD
:1030A000808181608083E1EBF0E0808184608083B7
:1030B000E0EBF0E0808181608083EAE7F0E08081EE
:1030C000846080838081826080838081816080834E
:1030D0008081806880831092C10008958230E8F476
:1030E000E82FF0E0EE0FFF1FE758FC4F718360837D
:1030F000813041F0809169008C7F842B809369003E
:10310000E89A089580916900440F551F440F551F98
:10311000837F842B80936900E99A0895823068F454
:10312000813011F0E89801C0E998E82FF0E0EE0F47
:10313000FF1FE758FC4F1182108208951F920F92D3
:103140000FB60F9211242F933F934F935F936F937A
:103150007F938F939F93AF93BF93EF93FF93809150
:10316000790390917A03892B29F0E0917903F0910A
:103170007A030995FF91EF91BF91AF919F918F9144
:103180007F916F915F914F913F912F910F900FBE63
:103190000F901F9018951F920F920FB60F92112447
:1031A0002F933F934F935F936F937F938F939F934F
:1031B000AF93BF93EF93FF9380917B0390917C0338
:1031C000892B29F0E0917B03F0917C030995FF9115
:1031D000EF91BF91AF919F918F917F916F915F918F
:1031E0004F913F912F910F900FBE0F901F90189508
:1031F000CF92DF92EF92FF920F931F93CF93DF93C3
:103200006C017A01EB01E60EF71E00E010E0CE152E
:10321000DF0561F06991D601ED91FC910190F0819B
:10322000E02DC6010995080F191FF1CFC801DF91E4
:10323000CF911F910F91FF90EF90DF90CF90089565
:103240006115710581F0DB010D900020E9F7AD01FA
:1032500041505109461B570BDC01ED91FC91028056
:10326000F381E02D099480E090E008950C942019FA
:10327000DC01ED91FC910190F081E02D09940F9318
:103280001F93CF93DF93EC016DE00E9438198C01FE
:103290006AE0CE010E943819800F911FDF91CF9113
:1032A0001F910F9108950F931F93CF93DF93EC011C
:1032B0000E9420198C01CE010E943F19800F911F9E
:1032C000DF91CF911F910F9108958F929F92AF92AE
:1032D000BF92CF92DF92EF92FF920F931F93CF9303
:1032E000DF93CDB7DEB7A1970FB6F894DEBF0FBE60
:1032F000CDBF7C01C42EE52FCB01D22E19A221E037
:103300002D1510F02AE0D22E8E010F5D1F4F8D2C4F
:10331000912CA12CB12C6C2D7E2FA50194010E9423
:103320008A1F8C2DD29E80191124015011098A30D8
:1033300014F4805D01C0895CF8018083211531059A
:103340004105510521F0C22EE32FCA01E4CFB80197
:10335000C7010E942019A1960FB6F894DEBF0FBED8
:10336000CDBFDF91CF911F910F91FF90EF90DF9034
:10337000CF90BF90AF909F908F900895CF92DF92A3
:10338000EF92FF920F931F93CF93DF93EC016A01AB
:103390007B012115310579F4E881F9810190F081F3
:1033A000E02D642FDF91CF911F910F91FF90EF904F
:1033B000DF90CF9009942A303105E9F477FF1AC0E5
:1033C0006DE20E9438198C0144275527BA014C1927
:1033D0005D096E097F092AE0CE010E946519800F00
:1033E000911FDF91CF911F910F91FF90EF90DF9090
:1033F000CF9008952AE0B701A601CE01DF91CF91C9
:103400001F910F91FF90EF90DF90CF900C94651972
:103410009A01AB01662757FD6095762F0C94BE1973
:103420002115310541F4DC01ED91FC910190F08111
:10343000E02D642F09940C9465199A01462F50E0F1
:1034400060E070E00C94101A9A01AB0160E070E04B
:103450000C94101A4F925F926F927F928F929F926C
:10346000AF92BF92CF92DF92EF92FF920F931F9392
:10347000CF93DF93EC016A017B01B22E9A01AB017D
:10348000C701B6010E942C1F882319F065EE71E078
:1034900027C026013701E89477F82FEF3FEF4FE779
:1034A0005FE7C301B2010E942C1F81110DC02FEFF5
:1034B0003FEF4FE75FE7C301B2010E94761D181688
:1034C0001CF469EE71E00CC02FEF3FEF4FE75FE4B3
:1034D000C701B6010E94C51E1816ACF46DEE71E06E
:1034E000CE01DF91CF911F910F91FF90EF90DF9070
:1034F000CF90BF90AF909F908F907F906F905F9094
:103500004F900C9420192FEF3FEF4FE75FECC7016E
:10351000B6010E94761D87FDE1CF20E030E0A901D1
:10352000C701B6010E94761D87FF0AC06DE2CE0179
:103530000E9438198C01F7FAF094F7F8F09402C061
:1035400000E010E0A12C60E070E080E09FE3AB14AD
:1035500041F020E030E040E251E40E947A1DA39463
:10356000F6CF9B01AC01C701B6010E94121D6B0191
:103570007C010E94E71D2B013C010E94131E9B0150
:10358000AC01C701B6010E94111D6B017C012AE04C
:10359000B301A201CE010E946519080F191FBB20BB
:1035A00039F067E771E0CE010E942019080F191F5A
:1035B0007B2C772041F120E030E040E251E4C7016C
:1035C000B6010E94C91E6B017C010E94E21D4B01E5
:1035D000AA2497FCA094BA2C2AE030E0B501A401FB
:1035E000CE010E94BE19080F191FC501B4010E9427
:1035F000151E9B01AC01C701B6010E94111D6B0194
:103600007C017A94D6CFC801DF91CF911F910F91A1
:10361000FF90EF90DF90CF90BF90AF909F908F90F2
:103620007F906F905F904F9008950C942A1A0E949B
:1036300033180E942B01C6EFDBE10E94650420973E
:10364000E1F30E94F61BF9CFFC0124853585F901D1
:10365000E05CFF4F80819181F901EE5BFF4F20819B
:103660003181821B930B8F7399270895FC01848508
:103670009585FC01E05CFF4F40815181FC01EE5BD0
:10368000FF4F208131814217530741F00190F081B3
:10369000E02DE80FF91F808190E008958FEF9FEFF4
:1036A0000895FC0184859585FC01E05CFF4F408115
:1036B0005181FC01EE5BFF4F20813181421753079E
:1036C00079F0A081B181A80FB91F8C91208131813F
:1036D0002F5F3F4F2F7333273183208390E008956E
:1036E0008FEF9FEF0895FC0181A1882329F0A48921
:1036F000B5898C9186FFFBCF11A20895CF93DF93FC
:10370000FC0126853785D901A05CBF4F8D919C9126
:10371000119701968F739927E901CE5BDF4F48819E
:10372000598184179507D9F30D90BC91A02DA20F54
:10373000B31F6C93A685B785A05CBF4F11969C9371
:103740008E93A689B7892C9181E090E0078C02C006
:10375000880F991F0A94E2F7282B2C9381E081A30C
:103760000488F589E02D80818064808381E090E089
:10377000DF91CF91089508951F920F920FB60F9287
:1037800011242F933F934F938F939F93EF93FF9326
:103790008091C00082FD1CC04091C600809123042E
:1037A0009091240401968F739927209125043091DC
:1037B00026048217930771F0E0912304F09124040A
:1037C000ED51FC4F4083909324048093230402C066
:1037D0008091C600FF91EF919F918F914F913F9102
:1037E0002F910F900FBE0F901F9018958DE793E0CB
:1037F0000E94241B892B11F00C94BB1B08951F926F
:103800000F920FB60F9211242F933F938F939F9394
:10381000EF93FF932091DF033091E0038091E10368
:103820009091E2032817390731F48091C1008F7D10
:103830008093C10014C0E091E103F091E203E156EE
:10384000FC4F20818091E1039091E20301968F73F8
:1038500099279093E2038093E1032093C600FF91A0
:10386000EF919F918F913F912F910F900FBE0F90ED
:103870001F901895CF92DF92EF92FF92CF93DF9334
:10388000EC016A017B01411581EE58076105710564
:10389000F9F0EC89FD8981E090E008A002C0880F72
:1038A000991F0A94E2F7808360E079E08DE390E06D
:1038B000A70196010E948A1F21503109410951092F
:1038C0005695479537952795211580E1380798F04B
:1038D000EC89FD89108260E874E88EE190E0A70130
:1038E00096010E948A1F21503109410951095695BC
:1038F000479537952795E889F9893083EA89FB89C7
:10390000208319A2EE89FF89408181E090E09C012B
:103910000C8C02C0220F331F0A94E2F7422B408323
:10392000EE89FF8940819C010D8C02C0220F331F5C
:103930000A94E2F7422B4083EE89FF8940819C0183
:103940000E8C02C0220F331F0A94E2F7422B4083F1
:10395000EE89FF8920810F8C02C0880F991F0A947D
:10396000E2F7809582238083DF91CF91FF90EF90E3
:10397000DF90CF9008951092800310927F0388EE1D
:1039800093E0A0E0B0E08093810390938203A09342
:103990008303B093840385EF91E090937E0380933B
:1039A0007D0383EE93E090938A03809389038FE9EC
:1039B00093E090938C0380938B0385EC90E090933D
:1039C0008E0380938D0384EC90E09093900380931A
:1039D0008F0380EC90E0909392038093910381ECAD
:1039E00090E0909394038093930382EC90E0909303
:1039F00096038093950386EC90E0909398038093D0
:103A0000970384E08093990383E080939A0387E08F
:103A100080939B0385E080939C0381E080939D03CA
:103A200008955058BB27AA270ED075C166D130F033
:103A30006BD120F031F49F3F11F41EF45BC10EF402
:103A4000E095E7FB51C1E92F77D180F3BA17620700
:103A500073078407950718F071F49EF58FC10EF473
:103A6000E0950B2EBA2FA02D0B01B90190010C018E
:103A7000CA01A0011124FF27591B99F0593F50F4A6
:103A8000503E68F11A16F040A22F232F342F4427FE
:103A9000585FF3CF469537952795A795F0405395F6
:103AA000C9F77EF41F16BA0B620B730B840BBAF0C6
:103AB0009150A1F0FF0FBB1F661F771F881FC2F731
:103AC0000EC0BA0F621F731F841F48F48795779545
:103AD0006795B795F7959E3F08F0B3CF9395880FFC
:103AE00008F09927EE0F979587950895D9D008F497
:103AF00081E008950CD00FC107D140F0FED030F026
:103B000021F45F3F19F0F0C0511139C1F3C014D155
:103B100098F39923C9F35523B1F3951B550BBB2794
:103B2000AA2762177307840738F09F5F5F4F220F41
:103B3000331F441FAA1FA9F333D00E2E3AF0E0E83A
:103B400030D091505040E695001CCAF729D0FE2F86
:103B500027D0660F771F881FBB1F26173707480718
:103B6000AB07B0E809F0BB0B802DBF01FF279358CE
:103B70005F4F2AF09E3F510568F0B6C000C15F3F1D
:103B8000ECF3983EDCF3869577956795B795F795B6
:103B90009F5FC9F7880F911D9695879597F90895AE
:103BA000E1E0660F771F881FBB1F6217730784074A
:103BB000BA0720F0621B730B840BBA0BEE1F88F759
:103BC000E095089504D06894B111D9C00895BCD08F
:103BD00088F09F5790F0B92F9927B751A0F0D1F0F6
:103BE000660F771F881F991F1AF0BA95C9F712C080
:103BF000B13081F0C3D0B1E00895C0C0672F782FF5
:103C00008827B85F39F0B93FCCF3869577956795EB
:103C1000B395D9F73EF490958095709561957F4F57
:103C20008F4F9F4F0895E89409C097FB3EF49095FD
:103C30008095709561957F4F8F4F9F4F9923A9F085
:103C4000F92F96E9BB279395F69587957795679514
:103C5000B795F111F8CFFAF4BB0F11F460FF1BC058
:103C60006F5F7F4F8F4F9F4F16C0882311F096E9EB
:103C700011C0772321F09EE8872F762F05C0662399
:103C800071F096E8862F70E060E02AF09A95660F52
:103C9000771F881FDAF7880F9695879597F908950B
:103CA000990F0008550FAA0BE0E8FEEF161617064D
:103CB000E807F907C0F012161306E407F50798F0B5
:103CC000621B730B840B950B39F40A2661F0232BCE
:103CD000242B252B21F408950A2609F4A140A6954A
:103CE0008FEF811D811D089597F99F6780E870E02F
:103CF00060E008959FEF80EC089500240A94161662
:103D0000170618060906089500240A9412161306C9
:103D1000140605060895092E0394000C11F4882357
:103D200052F0BB0F40F4BF2B11F460FF04C06F5F73
:103D30007F4F8F4F9F4F089557FD9058440F551F49
:103D400059F05F3F71F04795880F97FB991F61F01D
:103D50009F3F79F087950895121613061406551F94
:103D6000F2CF4695F1DF08C0161617061806991F00
:103D7000F1CF86957105610508940895E894BB27F5
:103D800066277727CB0197F908958ADF08F48FEF2C
:103D900008950BD0C0CFB1DF28F0B6DF18F095231F
:103DA00009F0A2CFA7CF1124EACFC6DFA0F3959FD9
:103DB000D1F3950F50E0551F629FF001729FBB2712
:103DC000F00DB11D639FAA27F00DB11DAA1F649FBE
:103DD0006627B00DA11D661F829F2227B00DA11D71
:103DE000621F739FB00DA11D621F839FA00D611DF7
:103DF000221F749F3327A00D611D231F849F600D18
:103E0000211D822F762F6A2F11249F5750408AF050
:103E1000E1F088234AF0EE0FFF1FBB1F661F771FDC
:103E2000881F91505040A9F79E3F510570F05CCF1C
:103E3000A6CF5F3FECF3983EDCF3869577956795C8
:103E4000B795F795E7959F5FC1F7FE2B880F911DFA
:103E50009695879597F9089523DF880B990B089518
:103E6000A29FB001B39FC001A39F700D811D1124BB
:103E7000911DB29F700D811D1124911D08950E9406
:103E8000301FA59F900DB49F900DA49F800D911D94
:103E900011240895B7FF0C943F1F0E943F1F821BFF
:103EA000930B0895DB018F939F930E943F1FBF9157
:103EB000AF91A29F800D911DA39F900DB29F900D79
:103EC00011240895AA1BBB1B51E107C0AA1FBB1FE9
:103ED000A617B70710F0A61BB70B881F991F5A9596
:103EE000A9F780959095BC01CD01089597FB072E09
:103EF00016F4009407D077FD09D00E94621F07FCDA
:103F000005D03EF4909581959F4F089570956195E9
:103F10007F4F0895A1E21A2EAA1BBB1BFD010DC005
:103F2000AA1FBB1FEE1FFF1FA217B307E407F50769
:103F300020F0A21BB30BE40BF50B661F771F881F45
:103F4000991F1A9469F760957095809590959B01DB
:103F5000AC01BD01CF010895052E97FB1EF400941E
:103F60000E94C31F57FD07D00E948A1F07FC03D081
:103F70004EF40C94C31F50954095309521953F4FBA
:103F80004F4F5F4F089590958095709561957F4F45
:103F90008F4F9F4F0895EE0FFF1F0590F491E02D76
:103FA0000994FB01DC0102C001900D924150504088
:103FB000D8F70895FB01DC010D900020E9F7119777
:103FC00001900D920020E1F70895AEE0B0E0EBEE35
:103FD000FFE10C949B220D891E898F89988D26E024
:103FE0002C831A83098397FF02C080E090E8019731
:103FF0009E838D83AE01455E5F4F698D7A8DCE01C4
:1040000001960E9415204D815E8157FD0AC02F81C7
:104010003885421753070CF49A01F801E20FF31F99
:1040200010822E96E4E00C94B722ACE0B0E0EBE115
:10403000F0E20C948D227C016B018A01FC01178255
:104040001682838181FFBDC1CE0101964C01F7012B
:104050009381F60193FD859193FF81916F018823F0
:1040600009F4ABC1853239F493FD859193FF8191B9
:104070006F01853229F4B70190E00E94FD21E7CF5E
:10408000512C312C20E02032A0F48B3269F030F436
:10409000803259F0833269F420612CC08D3239F0BE
:1040A000803339F4216026C02260246023C0286058
:1040B00021C027FD27C030ED380F3A3078F426FFB5
:1040C00006C0FAE05F9E300D1124532E13C08AE023
:1040D000389E300D1124332E20620CC08E3221F414
:1040E00026FD6BC1206406C08C3611F4206802C026
:1040F000883641F4F60193FD859193FF81916F011C
:104100008111C1CF982F9F7D9554933028F40C5F77
:104110001F4FFFE3F9830DC0833631F0833771F011
:10412000833509F05BC022C0F801808189830E5F6E
:104130001F4F44244394512C540115C03801F2E020
:104140006F0E711CF801A080B18026FF03C0652DA1
:1041500070E002C06FEF7FEFC5012C870E94F22153
:104160002C0183012C852F77222E17C03801F2E015
:104170006F0E711CF801A080B18026FF03C0652D71
:1041800070E002C06FEF7FEFC5012C870E94E7212E
:104190002C012C852068222E830123FC1BC0832D3B
:1041A00090E048165906B0F4B70180E290E00E9412
:1041B000FD213A94F4CFF50127FC859127FE8191EA
:1041C0005F01B70190E00E94FD2131103A94F1E0C7
:1041D0004F1A51084114510471F7E5C0843611F0AB
:1041E000893639F5F80127FF07C060817181828126
:1041F00093810C5F1F4F08C060817181882777FD14
:104200008095982F0E5F1F4F2F76B22E97FF09C013
:1042100090958095709561957F4F8F4F9F4F206847
:10422000B22E2AE030E0A4010E942F22A82EA81866
:1042300044C0853729F42F7EB22E2AE030E025C015
:10424000F22FF97FBF2E8F36C1F018F4883579F040
:10425000B4C0803719F0883721F0AFC02F2F20610C
:10426000B22EB4FE0DC08B2D8460B82E09C024FF81
:104270000AC09F2F9660B92E06C028E030E005C026
:1042800020E130E002C020E132E0F801B7FE07C0D3
:1042900060817181828193810C5F1F4F06C06081B4
:1042A000718180E090E00E5F1F4FA4010E942F22D9
:1042B000A82EA818FB2DFF77BF2EB6FE0BC02B2D06
:1042C0002E7FA51450F4B4FE0AC0B2FC08C02B2DFA
:1042D0002E7E05C07A2C2B2D03C07A2C01C0752CA4
:1042E00024FF0DC0FE01EA0DF11D8081803311F421
:1042F000297E09C022FF06C07394739404C0822FE4
:10430000867809F0739423FD13C020FF06C05A2C51
:10431000731418F4530C5718732C731468F4B70102
:1043200080E290E02C870E94FD2173942C85F5CFCC
:10433000731410F4371801C0312C24FF12C0B701D8
:1043400080E390E02C870E94FD212C8522FF17C07E
:1043500021FF03C088E590E002C088E790E0B70144
:104360000CC0822F867859F021FD02C080E201C086
:104370008BE227FD8DE2B70190E00E94FD21A5149C
:1043800038F4B70180E390E00E94FD215A94F7CF02
:10439000AA94F401EA0DF11D8081B70190E00E941A
:1043A000FD21A110F5CF332009F451CEB70180E2F1
:1043B00090E00E94FD213A94F6CFF7018681978123
:1043C00002C08FEF9FEF2C96E2E10C94A922FC0132
:1043D0000590615070400110D8F7809590958E0F30
:1043E0009F1F0895FC016150704001900110D8F7A3
:1043F000809590958E0F9F1F08950F931F93CF93D5
:10440000DF93182F092FEB018B8181FD03C08FEF04
:104410009FEF20C082FF10C04E815F812C813D81C3
:10442000421753077CF4E881F9819F012F5F3F4FCA
:1044300039832883108306C0E885F985812F099583
:10444000892B29F72E813F812F5F3F4F3F832E839A
:10445000812F902FDF91CF911F910F910895FA0135
:10446000AA27283051F1203181F1E8946F936E7FB3
:104470006E5F7F4F8F4F9F4FAF4FB1E03ED0B4E0A4
:104480003CD0670F781F891F9A1FA11D680F791FE5
:104490008A1F911DA11D6A0F711D811D911DA11DF6
:1044A00020D009F468943F912AE0269F1124301906
:1044B000305D3193DEF6CF010895462F4770405DA1
:1044C0004193B3E00FD0C9F7F6CF462F4F70405D50
:1044D0004A3318F0495D31FD4052419302D0A9F7AB
:1044E000EACFB4E0A6959795879577956795BA95A5
:1044F000C9F700976105710508959B01AC010A2E6B
:1045000006945795479537952795BA95C9F7620F41
:10451000731F841F951FA01D08952F923F924F92E5
:104520005F926F927F928F929F92AF92BF92CF9243
:10453000DF92EF92FF920F931F93CF93DF93CDB74C
:10454000DEB7CA1BDB0B0FB6F894DEBF0FBECDBFC4
:1045500009942A88398848885F846E847D848C8495
:104560009B84AA84B984C884DF80EE80FD800C819E
:104570001B81AA81B981CE0FD11D0FB6F894DEBF81
:0C4580000FBECDBFED010895F894FFCFF1
:10458C000A88130000022C010000A801AA01AF0147
:10459C00AE01B001B201B301B601BA01BC01BD015B
:1045AC00C001CA01C401C901C8014E52532C0047B5
:1045BC002C006F66662C006F6E2C0064696D2C00ED
:1045CC000A5B7765617468657273746174696F6E88
:1045DC0046534B5F424D503038355F44485432326D
:1045EC005F34333372785D0A002D0020003A0044AA
:1045FC0043462C002564002E0030005753342C0009
:10460C005753332049443D0020543D002072656CC3
:10461C00483D00205776656C3D0020576D61783D14
:10462C0000205261696E3D004E004E4E4500454ED5
:10463C004500455345005353450053005353570011
:10464C0057535700574E57004E4E5700424D502C63
:10465C00004448542C003402561F1C1F1E1F1E1FE2
:10466C001F1E1F1E1F6E616E00696E66006F7666E0
:10467C0000000000007E1BF818241B511B361B7316
:02468C001B0011
:00000001FF
