:100000000C9463000C94E4170C9411180C948B005E
:100010000C948B000C948B000C948B000C948B0034
:100020000C948B000C948B000C948B000C948B0024
:100030000C948B000C948B000C948B000C948B0014
:100040000C94CF160C948B000C94021B0C94451B43
:100050000C948B000C948B000C948B000C948B00F4
:100060000C948B000C948B00000000070002010030
:100070000003040600000000000000000102040864
:100080001020408001020408102001020408102002
:10009000040404040404040402020202020203032E
:1000A00003030303000000002300260029000000D2
:1000B0000000250028002B0000000000240027007D
:1000C0002A001006011C11241FBECFEFD8E0DEBFAE
:1000D000CDBF11E0A0E0B1E0E4E4FEE302C0059092
:1000E0000D92AC3FB107D9F714E0ACEFB1E001C01D
:1000F0001D92A132B107E1F710E0C6ECD0E004C0D8
:100100002297FE010E94131FC23CD107C9F70E942B
:100110005D1A0C94201F0C940000EF92FF920F9335
:100120001F93CF93DF93CDB7DEB72C970FB6F8941C
:10013000DEBF0FBECDBFE982FA820B831C832D8305
:100140003E834F83588769877A878B879C876AE2CB
:1001500071E087E793E00E947C184B815C816D81A0
:100160007E812AE030E087E793E00E9444198F8186
:10017000882319F06FE271E009C04AE050E06A8517
:1001800087E793E00E94511967E771E087E793E002
:100190000E947C18888599858130910541F08230D4
:1001A000910541F0892B61F462E371E005C067E3DA
:1001B00071E002C06BE371E087E793E00E947C1876
:1001C0008B85882339F04AE050E06C8587E793E01F
:1001D0000E94511967E771E087E793E00E947C185D
:1001E00069817A814AE050E087E793E00E945819DC
:1001F00087E793E02C960FB6F894DEBF0FBECDBF15
:10020000DF91CF911F910F91FF90EF900C94851883
:100210001F93CF93DF93EC01162F0E946106682F86
:1002200070E080E090E00E944817612FCE01DF91DE
:10023000CF911F910C94940644ED62E086E10E94F8
:10024000040C83E10E94270B8CE796EA0E948E0A39
:100250008AE00C946F0B40E855E260E070E087E7BD
:1002600093E00E94801B60E471E087E793E00E94C6
:100270007C18EFE6F2E0ABE5B2E0119211921D922C
:100280001D921D921D9282E0E937F807B1F74DEA01
:1002900062E086E10E94670C0E941C018AE892E0FD
:1002A0000E94EE068EEA92E00E947E134DE850E036
:1002B00062E081E00C946213FC0180E051E3615044
:1002C00078F09F012F5F3F4F408198E0742F78278F
:1002D000880F77FD8527440F9150C1F7F901EFCFC3
:1002E0000895CF93DF93EC018A3091052CF460E3FD
:1002F00087E793E00E947E184AE050E0BE0187E75E
:1003000093E0DF91CF910C943C190E94DB104AE0FE
:1003100050E0BC0187E793E00E943C1969E671E078
:1003200087E793E00E947C180E94D3100E9471011D
:1003300069E671E087E793E00E947C180E94CB1089
:100340000E9471016BE671E087E793E00E947C18E0
:100350000E94B3100E9471016DE671E087E793E09F
:100360000E947C180E94BB100E9471016DE671E032
:1003700087E793E00E947C180E94C3100E947101DD
:100380006BE671E087E793E00C947C18282F2295A8
:100390002F708F7090E03AE0239F800D911D112403
:1003A00008958F929F92AF92BF92CF92DF92EF9279
:1003B000FF920F931F93CF93DF93EC018D810E94E7
:1003C000C6017C018E818F710E94C6018C018F81D4
:1003D0000E94C6014C018C810E94C6015C018B8188
:1003E0000E94C6016C018A818F730E94C60194012C
:1003F000A501B6010E94DF106FE671E087E793E088
:100400000E947C180E94850187E793E0DF91CF91DD
:100410001F910F91FF90EF90DF90CF90BF90AF9022
:100420009F908F900C9485182F923F924F925F92DD
:100430006F927F928F929F92AF92BF92CF92DF92F4
:10044000EF92FF920F931F93CF93DF93CDB7DEB759
:10045000A5970FB6F894DEBF0FBECDBF89A38B0161
:1004600080E2EAE0F1E0DE01119601900D928A95BA
:10047000E1F7FB016181862F90E09C0144E0359516
:1004800027954A95E1F72080F0E12F9E1001112475
:10049000222A677070E0762F6627F8012281622B8E
:1004A000E3E095958795EA95E1F780FF03C07195A4
:1004B00061957109882777FD8095982F0E945B1DB3
:1004C0002DEC3CEC4CEC5DE30E940F1E2B013C013B
:1004D000F8013380F32DFF773F2EF801648170E03F
:1004E00080E090E00E945B1D2BE734E14EEA5EE382
:1004F0000E940F1E4B015C01F801658170E080E0F5
:1005000090E00E945B1D2BE734E14EEA5EE30E941F
:100510000F1E6B017C01F80166816F7070E0762F11
:1005200066278781682B882777FD8095982F0E9402
:100530005B1D2AE939E949E95EE30E940F1E6AA3BF
:100540007BA38CA39DA3F9A1F83209F07BC0F8012D
:1005500000850F7010E064E771E087E793E00E9488
:100560007C184AE050E0622D87E793E00E94511921
:1005700067E771E087E793E00E947C1822E030E0B3
:10058000B301A20187E793E00E94491A67E771E08F
:1005900087E793E00E947C184AE050E0632D87E7EC
:1005A00093E00E94511967E771E087E793E00E94AA
:1005B0007C1822E030E0B501A40187E793E00E94B7
:1005C000491A67E771E087E793E00E947C1822E010
:1005D00030E0B701A60187E793E00E94491A67E778
:1005E00071E087E793E00E947C18F801EE0FFF1F8F
:1005F00081E090E08C0F9D1FE80FF91F60817181F1
:1006000087E793E00E947C1867E771E087E793E053
:100610000E947C18B801882777FD8095982F0E944A
:100620005B1D20E030E044EB51E40E940F1EAB0163
:10063000BC0122E030E087E793E00E94491A67E7B7
:1006400071E04AC099A19A3209F06CC069E771E083
:1006500087E793E00E947C184AE050E0622D87E72C
:1006600093E00E94511961E871E087E793E00E94EE
:100670007C1822E030E0B301A20187E793E00E94FA
:10068000491A65E871E087E793E00E947C184AE028
:1006900050E0632D87E793E00E9451196CE871E008
:1006A00087E793E00E947C1822E030E0B501A401C6
:1006B00087E793E00E94491A63E971E087E793E0D6
:1006C0000E947C1822E030E0B701A60187E793E0A2
:1006D0000E94491A6AE971E087E793E00E947C185A
:1006E00022E030E04AA15BA16CA17DA187E793E005
:1006F000A5960FB6F894DEBF0FBECDBFDF91CF91A8
:100700001F910F91FF90EF90DF90CF90BF90AF902F
:100710009F908F907F906F905F904F903F902F9021
:100720000C944B1AA5960FB6F894DEBF0FBECDBF42
:10073000DF91CF911F910F91FF90EF90DF90CF90BD
:10074000BF90AF909F908F907F906F905F904F90F1
:100750003F902F9008954F925F926F927F928F9269
:100760009F92AF92BF92CF92DF92EF92FF920F9340
:100770001F930E94900A882309F462C080910802A6
:100780008F5F809308028091C30290E024E09595EA
:1007900087952A95E1F785309105ACF18730910571
:1007A00024F00A970297B8F02EC01091CB0268E0AF
:1007B00083EC92E00E945C0191E0181711F090E048
:1007C00005C0809109028F5F809309028AE28093BD
:1007D000FD0189E015C01091CC0269E083EC92E044
:1007E0000E945C0191E0181711F090E005C0809123
:1007F00009028F5F8093090288E28093FD018AE0FD
:100800008093000101C090E080910A02811118C01C
:100810009923B1F00E94191760930B0270930C0298
:1008200080930D0290930E0281E080930A028AE089
:10083000E3ECF2E0AEEFB1E001900D928A95E1F7C2
:1008400080910A02882329F10E94191700910B0256
:1008500010910C0220910D0230910E02601B710B61
:10086000820B930B63337105810591050CF080C1F8
:1008700010C021E0409151026FE072E081E00E94DF
:10088000E70B0E941C0110920802109209021092BC
:100890000A020E94191760937D0270937E02809372
:1008A0007F02909380020091790210917A02209148
:1008B0007B0230917C026B017C01C01AD10AE20AF2
:1008C000F30A00910101109102012091030130917E
:1008D00004010C151D052E053F0508F092C160931B
:1008E000790270937A0280937B0290937C0260E09D
:1008F0008AE892E00E94080161E08AE892E00E94A2
:1009000008014091590250915A02BA01660F771FAF
:1009100061597D4F8091530290915402FB012081D7
:100920003181821B930B9093540280935302440FA6
:10093000551F440F551F455A5D4F809155029091A8
:100940005602A0915702B0915802FA01008111811C
:1009500022813381801B910BA20BB30B8093550234
:1009600090935602A0935702B09358028AE892E0FF
:100970000E943907E0915902F0915A02DF01AA0F53
:10098000BB1FA159BD4F80915302909154022D91EC
:100990003C91820F931F9093540280935302DF0186
:1009A000AA0FBB1FAA0FBB1FA55ABD4F009155022E
:1009B0001091560220915702309158024D915D914D
:1009C0006D917C91040F151F261F371F0093550250
:1009D0001093560220935702309358023196F093A9
:1009E0005A02E093590235973CF041E0409352029D
:1009F00010925A021092590265E070E00E94BC1EEB
:100A00007093820260938102C901B80125E030E051
:100A100040E050E00E94F21E209383023093840253
:100A2000409385025093860280915202882309F4F4
:100A300040C065EC71E087E793E00E947C1860910C
:100A4000810270918202882777FD8095982F0E94FD
:100A50005B1D20E030E040E251E40E94C01CAB018D
:100A6000BC0122E030E087E793E00E94491A67E783
:100A700071E087E793E00E947C1860918302709197
:100A8000840280918502909186020E945B1D20E085
:100A900030E048EC52E40E94C01CAB01BC0122E0F3
:100AA00030E087E793E00E94491A87E793E00E94CD
:100AB00085188EEA92E00E94C9156B017C0160E006
:100AC0008EEA92E00E9455154B015C01AB01BC011E
:100AD0008EEA92E00E949013AB01BC01970186015F
:100AE0008EEA92E00E94BA13AB01BC018EEA92E05A
:100AF0000E94A5132B013C016AEC71E087E793E0AB
:100B00000E947C1822E030E0B501A40187E793E061
:100B10000E94491A67E771E087E793E00E947C181A
:100B200022E030E0B701A60187E793E00E94491A6E
:100B300067E771E087E793E00E947C1822E030E0ED
:100B4000B301A20187E793E00E94491A87E793E087
:100B50001F910F91FF90EF90DF90CF90BF90AF90DB
:100B60009F908F907F906F905F904F900C9485181E
:100B70001091FE0112951F701B3011F0163021F4F8
:100B80008EEF91E00E94D1011A3011F0153031F44E
:100B90006EEF71E08091FD010E9414028091FC01D2
:100BA00091E0980F9093FC0180930F028091FD01DA
:100BB000809310021091000110931102412F50E018
:100BC0006EEF71E082E192E00E94171FA3E0A10F97
:100BD000B0E0A15FBD4F86E0E1E8F2E001900D9248
:100BE0008A95E1F7175F109351024DEA62E086E1C2
:100BF0000E94040C0E94780B81113BCE0E94900A47
:100C0000F9CF1F910F91FF90EF90DF90CF90BF90A1
:100C1000AF909F908F907F906F905F904F900895CE
:100C200026E046E166E08EEA92E00E94771341E01A
:100C300062E08CEA92E00E9434098CEA92E09093A0
:100C40008B0280938A028EEE80938C0283E08093E5
:100C5000AB021092890208950F931F93CF93DF93F5
:100C6000EC01062F60E0888199810E94A009182F6D
:100C7000602F888199810E94A009212F30E0322FB6
:100C80002227A901482BCA01DF91CF911F910F9113
:100C900008951F93CF93DF93EC01162F6A8188810B
:100CA00099810E948B09612F888199810E94540942
:100CB0006A81616088819981DF91CF911F910C9445
:100CC0008B091F93CF93DF93EC01162F6A818881E4
:100CD00099810E948B0964EF888199810E9454094F
:100CE000112339F069A180E4689FB0011124646385
:100CF00001C06EE2888199810E945409888199819E
:100D00000E94450989A1882331F0813031F0823079
:100D100031F48EE005C085E003C088E001C08AE1BF
:100D2000DF91CF911F910895FF920F931F93CF935F
:100D3000DF93EC01F62E66EF0E944906F1100BC01E
:100D400061E0CE010E942C06A0E0B0E0898F9A8F6E
:100D5000AB8FBC8F34C060E0CE010E942C06AC018A
:100D600060E070E009A004C0440F551F661F771FA4
:100D70000A94D2F74D8F5E8F6F8F78A361E08881E0
:100D800099810E94A009082F10E029A188E090E035
:100D9000821B910902C0159507958A95E2F72227D3
:100DA00017FD2095322F4D8D5E8D6F8D78A1402BD4
:100DB000512B622B732B4D8F5E8F6F8F78A384E046
:100DC000F89EC00DD11D1124698D7A8D8B8D9C8D5F
:100DD000DF91CF911F910F91FF900895CF93DF93F3
:100DE000EC016AEA0E94490660E0CE010E942C06EE
:100DF0009C838B8360E0CE010E942C069E838D83B2
:100E000060E0CE010E942C0698878F8360E0CE01BF
:100E10000E942C069C8B8B8B60E0CE010E942C06DE
:100E20009E8B8D8B60E0CE010E942C06988F8F8B5D
:100E300060E0CE010E942C069A87898760E0CE018F
:100E40000E942C069C878B8760E0CE010E942C06B6
:100E50009E878D8760E0CE010E942C06988B8F873D
:100E600061E0CE010E942C069A8B898BDF91CF9195
:100E700008953F924F925F926F927F928F929F92CE
:100E8000AF92BF92CF92DF92EF92FF920F931F9398
:100E9000CF93DF93CDB7DEB72C970FB6F894DEBFB4
:100EA0000FBECDBF9C878B877B018A01DC015D96DD
:100EB0008D919D910D90BC91A02D8D839E83AF83CC
:100EC000B887EB85FC858789908D218D328D438D88
:100ED000548D281B390B41095109A589B6890E94F7
:100EE000851E4B015C01AFE0B594A794979487945D
:100EF000AA95D1F767857089882777FD8095982F07
:100F0000BBE0660F771F881F991FBA95D1F721891B
:100F10003289442737FD4095542F280D391D4A1D2D
:100F20005B1D0E94F21E280D391D4A1D5B1DDA0152
:100F3000C9010896A11DB11D64E0B595A7959795C7
:100F400087956A95D1F7F7019183808329013A014A
:100F5000F0EA4F1AFFE05F0A61087108A3019201ED
:100F6000C301B2010E94981E6B017C017CE0F594E4
:100F7000E794D794C7947A95D1F7AB85BC8513963F
:100F80000D90BC91A02DBA87A987EB85FC8531A077
:100F9000A781B0850E94901E4B015C01ADE0B59425
:100FA000A79497948794AA95D1F7A185B285A701B4
:100FB00096010E94901EBB2797FDB095AB2F880E1F
:100FC000991EAA1EBB1EF2E08F0E911CA11CB11C23
:100FD00082E0B594A794979487948A95D1F780E896
:100FE000980EA11CB11CEB85FC85A389B489A501D1
:100FF00094010E94851EDC01CB012FE0B695A795D8
:10100000979587952A95D1F789839A83AB83BC837B
:10101000E985FA854F01AA2497FCA094BA2C32E006
:10102000880C991CAA1CBB1C3A95D1F7EB85FC8552
:10103000A385B485A70196010E94901E6B017C01D7
:101040004BE0F594E794D794C7944A95D1F7A581DE
:10105000B681A30192010E94901E5BE09595879551
:10106000779567955A95D1F7C60ED71EE81EF91EDB
:101070008C0C9D1CAE1CBF1C032C04C0880C991C3E
:10108000AA1CBB1C0A94D2F7F2E08F0E911CA11C83
:10109000B11C62E0B594A794979487946A95D1F7B0
:1010A0008D819E81AF81B88588199909AA09BB09EC
:1010B0008D839E83AF83B88760E573EC80E090E01A
:1010C00004C095958795779567953A94D2F72D81C9
:1010D0003E814F8158850E94981E97FD0DC0660F76
:1010E000771F881F991F29813A814B815C810E945B
:1010F000D01E49015A010CC029813A814B815C8183
:101100000E94D01E49015A01880C991CAA1CBB1CC4
:101110009927B7FC9A958B2D7A2D692D9B01AC01EF
:101120000E94981E9B01AC01AEEDBBE00E94851EA3
:101130006C01FF24D7FCF094EF2CA3E4B3EEA501DF
:1011400094010E94931EBB2797FDB095AB2FC80E4C
:10115000D91EEA1EFB1E9FECC90E9EE0D91EE11CA3
:10116000F11C54E0F594E794D794C7945A95D1F7BD
:10117000C80CD91CEA1CFB1CD801CD92DD92ED9263
:10118000FC9213972C960FB6F894DEBF0FBECDBF1E
:10119000DF91CF911F910F91FF90EF90DF90CF9053
:1011A000BF90AF909F908F907F906F905F904F9087
:1011B0003F900895FC018081882311F08D5F01C06C
:1011C00082E10C943716FC018081882311F08D5F39
:1011D00001C082E10E94A6160895FC018081882347
:1011E00011F08D5F01C082E10C947016FC018081CA
:1011F000882311F0835F01C083E10C943716FC0152
:101200008081882311F0835F01C083E10C94701604
:101210001F93CF93DF93EC01162F61E0111160E073
:10122000CE010E94DA08612FCE01DF91CF911F918C
:101230000C94ED08CF93DF93EC01898190E00E943C
:101240006E1761E0CE01DF91CF910C94FF08CF9330
:10125000DF93EC01898190E00E946E1760E0CE017F
:10126000DF91CF910C94FF08CF93DF93EC0168835B
:10127000498361E00E94080961E0CE010E94F608FE
:10128000CE01DF91CF910C941A09CF93DF93EC013B
:1012900060E00E940809CE010E941A0961E0CE01B7
:1012A000DF91CF910C940809EF92FF920F931F9357
:1012B000CF93DF93EC01E62E0E94270908E010E0AF
:1012C00040E8F42E6F2D6E21CE010E940809CE0158
:1012D0000E941A09CE010E942709F69401501109B3
:1012E0000115110579F761E0CE010E940809CE01D0
:1012F0000E941A09CE010E94E308182FCE010E9415
:10130000270981E0111180E0DF91CF911F910F91AA
:10131000FF90EF9008951F93CF93DF93EC01162F6A
:101320000E942709CE010E941A0960E0CE010E94A6
:101330000809612FCE01DF91CF911F910C945409C0
:10134000DF92EF92FF920F931F93CF93DF93EC0105
:10135000D62E08E010E050E8E52EF12CCE010E94D8
:101360001A09CE010E94E3088111FE28CE010E94D5
:101370002709E694015011090115110579F76D2D22
:10138000CE010E940809CE010E941A09CE010E94D6
:101390002709DD2019F0CE010E94450961E0CE0148
:1013A0000E9408098F2DDF91CF911F910F91FF901F
:1013B000EF90DF9008958627682F62956827062EA4
:1013C000669566956025062E669560256770082EE1
:1013D000892F669507946795902D862706946795C3
:1013E0009025862708958EBD0DB407FEFDCF8EB5DE
:1013F0000895CF92DF92EF92FF921F93CF93DF93E6
:10140000182FE89885B1C12CD12C7601C394B7016F
:10141000A6010090050104C0440F551F661F771FE9
:101420000A94D2F74095482345B9892F0E94F309C1
:10143000C82FD0E0DC2FCC27812F0E94F30995B173
:101440000090050104C0CC0CDD1CEE1CFF1C0A94AE
:10145000D2F79C2995B9E89A9E01282BC901DF9102
:10146000CF911F91FF90EF90DF90CF9008958091E2
:101470001103909112038F709093120380931103C4
:1014800080911103909112038860909312038093CE
:10149000110380911103909112030C94F90925B165
:1014A00081E090E0A0E0B0E0AC01BD01009005015A
:1014B00004C0440F551F661F771F0A94D2F7242BD0
:1014C00025B924B10090050104C0880F991FAA1FF7
:1014D000BB1F0A94D2F7282B24B961E08AE00E944E
:1014E000701661E08AE00E94371661E08BE00E948E
:1014F000371660E08CE00E94371661E08DE00E94B4
:10150000371680E58CBD8DB581608DBD60E082E0D1
:101510000E94371661E082E00C9470160C94F90971
:10152000809113038730D1F580910B03882359F004
:1015300090911403981708F064C0809114038734C5
:1015400008F05FC02BC08091C4022091140390E08A
:10155000049630E08217930724F0809114038734B7
:10156000E8F084E0809313038091C402833430F068
:1015700081E090E090930A03809309038091C30275
:1015800086FF49C090911703892F8F718F3109F41D
:1015900042C08091C30289278F71E9F180911303C2
:1015A000843069F51092C402109214038FEF9FEFFC
:1015B00090930A038093090360911603662331F028
:1015C0000E94DB0990930A038093090387E08093CC
:1015D000130381E080930D0383EA94E90E94F909E3
:1015E0008091110390911203886D90931203809360
:1015F000110380911103909112030E94F90980E078
:10160000089584E08093130381E090E090930A03AF
:10161000809309031AC08091090390910A03892BD2
:1016200049F4E091BC02F091BD02309719F080E0DE
:1016300009950BC08FEF9FEFDC018093BE02909362
:10164000BF02A093C002B093C10281E008950F933E
:101650001F93CF93C82F082F10E0C801966C0E94EB
:10166000F909CF772C2F30E02F5F3F4F442737FD0C
:101670004095542F6BEF72E485E090E00E94D01EFD
:10168000CA01B9019801220F232F221F330B47E013
:10169000429F8001439F100D11240F5F1F4F98013F
:1016A000442737FD4095542F0E94D01E13E05695D5
:1016B0004795379527951A95D1F72D573C4F4F4FA2
:1016C0005F4FCA01B90124E833E040E050E00E94D6
:1016D000D01E20930C03CF911F910F91089581117B
:1016E00003C010920B0308958F5F80930B0308953E
:1016F00080911303873021F480911403882311F023
:1017000080E008950E94370A84E08093130381E00B
:10171000089586FD05C0807E909117039F71890F03
:101720008093C302E091BC02F091BD02309711F0AA
:1017300081E009958FEF9FEF90930A03809309034F
:101740008091090390910A03609116030E94DB09BE
:1017500090930A038093090388E080931303809198
:1017600011039091120388639093120380931103E5
:1017700080911103909112030C94F909CF93C82F13
:101780004093C40250E085EC92E00E94171F8C2F1A
:10179000CF910C94890B909113039430B9F0882366
:1017A000D1F393B7917F833021F0823021F42CE084
:1017B00003C024E001C020E0922B93BF93B7916057
:1017C00093BF889593B79E7F93BFE5CF0895CF933E
:1017D000DF931F92CDB7DEB729830E94BE0B29810C
:1017E000822F0F90DF91CF910C94CB0B8091170338
:1017F0008F7139F040E050E066EF7CE080E00C94BF
:10180000B41780E00C94D417CF93809317034093C0
:101810001603609315030E94F60B10920B03E898D1
:1018200085E092E890931203809311038091110355
:10183000909112030E94F9098091150320E1829F83
:10184000C0011124876C90680E94F90980E496EA2F
:101850000E94F90986E00E94270B82EA94E90E941F
:10186000F9098CEA92EC0E94F909C0911603CC2385
:1018700041F083E89AEC0E94F9098C2F90E09E6C6D
:1018800006C08BE89AEC0E94F9098DE29EEC0E945A
:10189000F90983E894EC0E94F90980E598E90E942F
:1018A000F90987E79CEC0E94F90980E090EE0E941C
:1018B000F90980E098EC0E94F90989E490EC0E9413
:1018C000F90984E080931303E89ACF9108951F9358
:1018D000CF93DF9300D0CDB7DEB7182F80931703D7
:1018E00040931603609315034A8369830E944F0A4D
:1018F0000E94F60B82E89AEC0E94F90980E09EEFC4
:101900000E94F90985E08093130393B7917F93BFF9
:101910004A81698180911303853041F493B79160C6
:1019200093BF889593B79E7F93BFF4CF812F0E947A
:10193000040C809117030F900F90DF91CF911F91AE
:101940000895CF92DF92EF92FF92CF936B017C01CB
:10195000C0E08FEFC816D104E104F10439F030F093
:10196000CF5FF694E794D794C794F3CF20911103F7
:101970003091120321FF0FC0209111033091120307
:101980002D7F3093120320931103809111039091C6
:1019900012030E94F909C114D104E104F10401F118
:1019A00080EED82A8C2F992787FD9095982F88272D
:1019B0008C299D290E94F9098091110390911203AD
:1019C0008260909312038093110380911103909190
:1019D0001203CF91FF90EF90DF90CF900C94F90914
:1019E000CF91FF90EF90DF90CF9008951F93CF930A
:1019F000DF93E89885B141E050E060E070E000904E
:101A0000050104C0440F551F661F771F0A94D2F7C3
:101A10004095482345B980E00E94F309C82FD0E0E3
:101A2000DC2FCC2780E00E94F309C82BD7FF05C02C
:101A300080911303873009F4F1C095B141E050E083
:101A400060E070E00090050104C0440F551F661F60
:101A5000771F0A94D2F7942B95B9E89AD093100384
:101A6000C0930F0320910F033091100337FFB3C0D1
:101A700080911303873009F060C0809114038111B5
:101A800004C0809116038111D4C0E091140381E059
:101A90008E0F80931403F0E0EE53FD4F108380917E
:101AA000090390910A03612F0E94DB0990930A03B6
:101AB0008093090340910D03433020F58091140376
:101AC00090E0029760910C0370E00E94BC1E892B8D
:101AD000C9F420910F0330911003842F90E030FF60
:101AE000B3C0FC01E153FE4F80818F7080930D03E2
:101AF000833040F490E0880F991F0196806A9469C2
:101B00000E94F90980910B03882331F0909114030E
:101B1000981708F09FC00BC08091C4022091140355
:101B200090E0049630E0821793070CF493C0809104
:101B30001403873408F08EC04EC08091130387FFD2
:101B40001AC0E091C4028091130391E0980F909322
:101B50001303ED5FE80FF0E0EE53FD4FC08180917D
:101B6000090390910A036C2F0E94DB0990930A03EA
:101B7000809309032BC08091130391E0980F9093F9
:101B80001303833001F154F48823B9F08130E9F470
:101B90008091090390910A03C92F18C08B3059F026
:101BA0008C3099F4C09116039091C4028EEF891B7A
:101BB000809313030BC0CDE209C08091090390917B
:101BC0000A03C82F03C00E94370ACAEA8C2F90E08C
:101BD000986B0E94F90980910F039091100396FF72
:101BE00003C086E08093130380910F03909110034C
:101BF00094FF08C060E070E0CB010E94A10C81E07E
:101C000080930E0380910F039091100395FF25C0E0
:101C10000E94370A84E0809313031FC08CB5816053
:101C20008CBD80E00E94F309182F9CB59E7F9CBD5F
:101C300004CFE091140391E09E0F90931403F0E021
:101C4000EE53FD4F808321CFFC01E153FE4F808195
:101C500082954BCF0E94370ABECFDF91CF911F9163
:101C600008956F927F928F929F92AF92BF92CF9280
:101C7000DF92EF92FF920F931F93CF93DF93EA01CE
:101C80002CE3C22ED12CE12CF12CA70196010E944D
:101C9000D01E6883CA01B901A70196010E94D01E17
:101CA0006983CA01B90128E130E040E050E00E94B8
:101CB000D01E49015A016A83CA01B9016C5F7F4F86
:101CC0008F4F9F4F27E030E040E050E00E94D01E51
:101CD0006F5F6B8300E010E0980140E054E6652EF2
:101CE000712C60E9C62EDD24D394E42FF0E0EE548D
:101CF000F84F7F0183E0E822FF24E114F10489F426
:101D0000CF01B3010E94BC1E892B29F08EE691E021
:101D1000A0E0B0E00AC0CF01B6010E94BC1E892B32
:101D2000A9F38DE691E0A0E0B0E0080F191F2A1F8B
:101D30003B1FD901C801AA27BB2788169906AA0606
:101D4000BB0610F04F5FD1CF4E83E114F10499F43C
:101D5000CF0164E670E00E94BC1E892B29F08EE65C
:101D600091E0A0E0B0E00BC0CF0160E971E00E941B
:101D7000BC1E892BA1F38DE691E0A0E0B0E0081B2A
:101D8000190B2A0B3B0B801A910AA20AB30ACF0146
:101D900064E670E00E94BC1E9C01CF0160E971E026
:101DA0000E94BC1EE2EDF1E0A0E0A13059F4E11484
:101DB000F10451F42115310511F04DE106C00097F1
:101DC000E1F302C0408101C04CE150E060E070E00E
:101DD00084169506A606B70640F0841A950AA60A48
:101DE000B70AAF5F3196AC3001F7AF5FAD83839434
:101DF0008C82DF91CF911F910F91FF90EF90DF9038
:101E0000CF90BF90AF909F908F907F906F900895EC
:101E1000CF92DF92EF92FF926B017C0180912803B9
:101E200090912903A0912A03B0912B03C816D906DB
:101E3000EA06FB0671F04CE253E0C701B6010E94CE
:101E4000310EC0922803D0922903E0922A03F09227
:101E50002B03FF90EF90DF90CF9008950E94080F22
:101E60008091320390E08E54984F08956F927F9244
:101E70008F929F92AF92BF92CF92DF92EF92FF929A
:101E80000F931F93CF93DF93FC01C680AC2DB0E07E
:101E900020E833E341EE51E00E94851E4B015C01D6
:101EA00022EB37E06D01C4E6D0E000E911E0C901A2
:101EB000825B97408C159D05DCF4C90183709927DE
:101EC000892B99F4C901BE010E94BC1E892B31F4F3
:101ED000C901B8010E94BC1E892B39F480E8880E24
:101EE00081E5981E81E0A81EB11C2F5F3F4FDFCF18
:101EF0006580712C8EE4C81A88EFD80AC60164E6A2
:101F000070E00E94BC1E8C01C60160E971E00E9475
:101F1000BC1E7C01C1E0D0E083E0C822DD24C615F0
:101F2000D7052CF5C230D10589F4C114D10471F460
:101F30000115110519F4E114F10441F480E8880E4B
:101F40008BE3981E86E2A81EB11C0FC0DE01AF52C3
:101F5000BE4FAC91B0E020E831E541E050E00E9496
:101F6000851E860E971EA81EB91E2196D8CF4181C8
:101F7000228130E0A0E1BEE00E94761E6B017C0170
:101F8000242F30E0ACE3B0E00E94761EC60ED71ED0
:101F9000E81EF91E8081C80ED11CE11CF11CA48131
:101FA000B0E0119720E831E541E050E00E94901E3A
:101FB000C60ED71EE81EF91EC80CD91CEA1CFB1C55
:101FC000C701B601DF91CF911F910F91FF90EF9064
:101FD000DF90CF90BF90AF909F908F907F906F9049
:101FE00008950F931F9360932403709325038093A8
:101FF0002603909327030091060110910701209179
:10200000080130910901060F171F281F391F00937F
:102010001C0310931D0320931E0330931F0382E0C3
:1020200090E090931B0380931A030E94191760930A
:1020300020037093210380932203909323031F9125
:102040000F910895CF92DF92EF92FF920F931F931B
:102050000E941917C0902003D0902103E090220322
:10206000F09023036C197D098E099F0900912403C8
:10207000109125032091260330912703683E734079
:1020800081059105D8F00F5F1F4F2F4F3F4F0093F1
:10209000240310932503209326033093270348EE4F
:1020A000C40E43E0D41EE11CF11CC0922003D09268
:1020B0002103E0922203F0922303CACF80911C03F4
:1020C00090911D03A0911E03B0911F0308171907DB
:1020D0002A073B07C8F1E0911803F09119033097E4
:1020E00099F10995611571058105910519F00E9415
:1020F000F10F2AC08091060190910701A09108017B
:10210000B091090140912403509125036091260369
:1021100070912703840F951FA61FB71F80931C0380
:1021200090931D03A0931E03B0931F0381E090E0E2
:1021300020911A0330911B03232B11F480E090E0CF
:1021400090931B0380931A036091240370912503DD
:1021500080912603909127031F910F91FF90EF909C
:10216000DF90CF9008950E9422100E94080F809166
:102170002E0390E008950E9422100E94080F809183
:102180002D0390E008950E9422100E94080F809174
:102190002C0390E008950E9422100E94080F809165
:1021A000300390E008950E9422100E94080F809151
:1021B000310390E008950E9422100C942E0FEF92AC
:1021C000FF920F9394E6E916F1042CF092EBE91AD2
:1021D00097E0F90A03C09EE1E90EF11CE092320398
:1021E000009331032093300380932E0360932D03DB
:1021F00040932C038CE293E00E94360F0F91FF90E6
:10220000EF900C94F10FCF92DF92EF92FF920F9329
:102210001F9380916203882309F443C280915E0377
:1022200090915F03A0916003B091610380935A0382
:1022300090935B03A0935C03B0935D030E9425170A
:1022400060935E0370935F038093600390936103D8
:1022500020915503222319F01092550322C2209198
:10226000670330916803C0905A03D0905B03E090FD
:102270005C03F0905D0337FD15C0DC01CB018C19C8
:102280009D09AE09BF09009153031091540320E04A
:1022900030E080179107A207B30720F481E0809314
:1022A0005503FFC180915603909157039601281B57
:1022B000390BC901C0925603D0925703E0925803DC
:1022C000F092590320916703309168032F3F3F4FED
:1022D00081F5813C22E1920708F4E3C11092520398
:1022E00068E270E00E94A81EFB01709347036093B0
:1022F00046039B01220F331F260F371FC9016AE0D7
:1023000070E00E94A81E70935403609353033093AF
:10231000450320934403309343032093420353E047
:10232000EE0FFF1F5A95E1F7F0934103E09340034E
:1023300029C12091670330916803232BA9F42091D0
:102340004403309145032817390708F497C11092C8
:10235000510310924F0310924803109249031092B8
:102360004A0310924B030EC120916703309168031A
:1023700021303105C9F4209146033091470367E0CD
:10238000629FA001639F500D11248417950708F4E4
:1023900075C16FE0629FA001639F500D1124481723
:1023A000590708F0EFC06AC12091670330916803B4
:1023B000243931050CF0E6C060913F03660F60934D
:1023C0003F0320914403309145032817390710F04B
:1023D0006E700FC020914203309143038217930720
:1023E000B8F020914003309141032817390780F05D
:1023F000616060933F03809167039091680364E09C
:1024000070E00E94BC1E8130910509F0BBC02BC05A
:10241000209146033091470374E1729FA001739F9E
:10242000500D11248417950708F428C170E5729F98
:10243000A001739F500D11244817590708F41EC1BD
:1024400061FD1CC1809167039091680383399105F8
:1024500009F4A2C0809167039091680383389105C5
:1024600009F00CC199C020916703309168032A36A6
:1024700031053CF58091480390914903A0914A03AE
:10248000B0914B03880F991FAA1FBB1F809348036D
:1024900090934903A0934A03B0934B0320913F03C9
:1024A0002F70213009F46EC0243009F0E7C081603C
:1024B0008093480390934903A0934A03B0934B033E
:1024C00061C020916703309168032E3631057CF49A
:1024D00080913F038F70813039F0843009F0CEC095
:1024E00081E080934C034EC010924C034BC020916E
:1024F00067033091680322373105ACF420913F0324
:102500002F70213021F040F0243041F0B7C01092FC
:102510004E0310924D0336C082E090E090934E033C
:1025200080934D032FC08091670390916803823898
:1025300091058CF480914F03880F80934F03909105
:102540003F039F709130F1F0943009F097C08160A3
:1025500080934F0317C0809167039091680382397D
:10256000910584F480915103880F809351039091D9
:102570003F039F70913031F0943009F07FC081604B
:102580008093510380916703909168030196909323
:1025900068038093670385C0809167039091680307
:1025A0008339910519F481E08093500340914803E9
:1025B0005091490360914A0370914B038091350318
:1025C00090913603A0913703B0913803481759070B
:1025D0006A077B0709F055C090914F0380913C0337
:1025E00098134FC09091500380913D03981349C0B8
:1025F0009091510380913E03981343C090914C03F6
:102600008091390398133DC020914D0330914E03C2
:1026100080913A0390913B032817390791F58091F7
:1026200052038F5F80935203909166038917A8F13C
:1026300080916303811122C081E080936303E09164
:102640006403F0916503E0904603F0904703009126
:1026500048031091490320914A0330914B03409164
:102660004C0350914D0360914E0370914F03809144
:102670005003909151030995109263038FEF9FEFE0
:1026800086CF109252038CE0E6E4F3E0A3E3B3E0DC
:1026900001900D928A95E1F7C2CF109268031092D3
:1026A00067031F910F91FF90EF90DF90CF900895F7
:1026B0008FEF9FEF909368038093670381E080938F
:1026C00062030895809369036093660350936503E2
:1026D000409364030E9458138091690387FD06C0EC
:1026E00041E050E063E071E10C94B4170895FC01FF
:1026F00066834783208781E085870895CF93DF93A2
:10270000EC0160E08E810E94371661E08E810E94AC
:10271000701619861A861B861C86DF91CF91089544
:10272000CB01BA0120E030E040E151E40E940F1EED
:1027300020E030E040EA50E40E94C01C20E030E09D
:1027400040E052E40E94581C0895CB01BA0120E0F9
:1027500030E040E052E40E94571C20E030E040EAC4
:1027600050E40E940F1E20E030E040E151E40E945E
:10277000C01C08954F925F926F927F928F929F92AA
:10278000AF92BF92CF92DF92EF92FF920F931F937F
:10279000CF93DF93CDB7DEB728970FB6F894DEBF9F
:1027A0000FBECDBF6A017B01480159019A01AB01FF
:1027B000C701B6010E940F1E2B013C01A501940127
:1027C000C501B4010E940F1E6D837E838F8398879D
:1027D00021E133E243E050E4C701B6010E940F1E3D
:1027E00029E134E849E252E40E94571C69837A8364
:1027F0008B839C8326E13BE442E251E4C501B401B2
:102800000E940F1E9B01AC0169817A818B819C81A2
:102810000E94581C69837A838B839C8328E436E268
:1028200046E65EEBC701B6010E940F1EA5019401AA
:102830000E940F1E9B01AC0169817A818B819C8172
:102840000E94581C69837A838B839C8320EE3FE02F
:1028500040EE5BEBC301B2010E940F1E9B01AC0175
:1028600069817A818B819C810E94581C69837A835B
:102870008B839C8328EF37E840E65DEB6D817E819A
:102880008F8198850E940F1E9B01AC0169817A811E
:102890008B819C810E94581C69837A838B839C83E3
:1028A0002CEA3DE041EA5AE3C301B2010E940F1E47
:1028B000A50194010E940F1E9B01AC0169817A81E0
:1028C0008B819C810E94581C4B015C0128EC3FE8E5
:1028D0004FE55AE3C701B6010E940F1E2D813E81CC
:1028E0004F8158850E940F1E9B01AC01C501B401A8
:1028F0000E94581C6B017C0121EF3BE845E056EB40
:10290000C301B2010E940F1E2D813E814F81588567
:102910000E940F1E9B01AC01C701B6010E94581C0A
:1029200028960FB6F894DEBF0FBECDBFDF91CF91D2
:102930001F910F91FF90EF90DF90CF90BF90AF90DD
:102940009F908F907F906F905F904F900895DF924F
:10295000EF92FF920F931F93CF93DF93EC010E94AE
:10296000191709851A852B853C8560177107820721
:10297000930720F419861A861B861C862D85211143
:1029800011C009851A852B853C85DC01CB01801B94
:10299000910BA20BB30B803D9740A105B10510F43C
:1029A00081E07BC01D860E94191769877A878B8713
:1029B0009C871C821B821A821982188261E08E8198
:1029C0000E9470166AEF70E080E090E00E94481765
:1029D00061E08E810E94371660E08E810E94701641
:1029E00064E170E080E090E00E944817F89461E0B4
:1029F0008E810E94701688E290E00E946E1760E05F
:102A00008E810E943716F12CD12C81E0E12C082F09
:102A100010E08E810E94A6168017910741F4E3947E
:102A200081E090E00E946E178FEFE812F2CF8E8166
:102A30000E94A6169FEFE916C9F023E02F1590F427
:102A4000F0FC10C09D2D969596959695FE01E90F88
:102A5000F11D9081990F908328852E1510F49160B7
:102A60009083D394F39495E5F912D0CF789427E22C
:102A70002D1590F42C8130E04881898190E0840FFD
:102A8000911D4A81840F911D4B81840F911D9927BF
:102A90002817390709F484CF80E0DF91CF911F9187
:102AA0000F91FF90EF90DF900895CF92DF92EF9219
:102AB000FF920F931F93CF93DF93EC01162F0E9489
:102AC000A714882309F450C08F818B3031F008F4AB
:102AD0004BC08551823078F047C06A8170E080E059
:102AE00090E00E94591D112309F443C020E030E01A
:102AF00040E151E42AC00A81602F6F7770E080E0E6
:102B000090E00E945B1D20E030E040E853E40E942A
:102B10000F1E6B017C016B8170E080E090E00E94F1
:102B20005B1D9B01AC01C701B6010E94581C20E04F
:102B300030E040E251E40E94C01C07FD9058112390
:102B4000D9F020E030E040E151E40E940F1E20E087
:102B500030E040EA50E40E94C01C20E030E040E059
:102B600052E40E94581C08C020E030E040EC5FE7CF
:102B700005C09B01AC0102C09B01AC01B901CA01B7
:102B8000DF91CF911F910F91FF90EF90DF90CF9049
:102B90000895CF92DF92EF92FF92CF93DF93EC01F3
:102BA0000E94A714882379F18F818B3029F158F185
:102BB0008551823040F5688170E080E090E00E94AD
:102BC000591D20E030E040E853E40E940F1E6B01E5
:102BD0007C01698170E080E090E00E945B1D9B01B8
:102BE000AC01C701B6010E94581C20E030E040E271
:102BF00051E40E94C01C0BC0688170E080E090E04E
:102C00000E94591D04C060E070E080EC9FE7DF91F6
:102C1000CF91FF90EF90DF90CF900895833081F0B7
:102C200028F4813099F08230A1F008958630A9F01F
:102C30008730B9F08430D1F4809180008F7D03C05B
:102C4000809180008F7780938000089584B58F777E
:102C500002C084B58F7D84BD08958091B0008F77C8
:102C600003C08091B0008F7D8093B0000895CF9312
:102C7000DF9390E0FC01E458FF4F2491FC01E05702
:102C8000FF4F8491882349F190E0880F991FFC0140
:102C9000E854FF4FA591B49182559F4FFC01C59117
:102CA000D4919FB7611108C0F8948C91209582232C
:102CB0008C93888182230AC0623051F4F8948C91FD
:102CC000322F309583238C938881822B888304C094
:102CD000F8948C91822B8C939FBFDF91CF910895B4
:102CE0000F931F93CF93DF931F92CDB7DEB7282F9B
:102CF00030E0F901E859FF4F8491F901E458FF4FA2
:102D00001491F901E057FF4F04910023C9F0882383
:102D100021F069830E940E166981E02FF0E0EE0F2A
:102D2000FF1FE255FF4FA591B4919FB7F8948C9186
:102D3000611103C01095812301C0812B8C939FBF2B
:102D40000F90DF91CF911F910F910895CF93DF9353
:102D5000282F30E0F901E859FF4F8491F901E45838
:102D6000FF4FD491F901E057FF4FC491CC2391F06C
:102D700081110E940E16EC2FF0E0EE0FFF1FEC55B4
:102D8000FF4FA591B4912C912D2381E090E021F487
:102D900080E002C080E090E0DF91CF9108951F9223
:102DA0000F920FB60F9211242F933F938F939F93FF
:102DB000AF93BF9380916B0390916C03A0916D03CF
:102DC000B0916E0330916A0323E0230F2D3720F476
:102DD0000196A11DB11D05C026E8230F0296A11D75
:102DE000B11D20936A0380936B0390936C03A093AF
:102DF0006D03B0936E0380916F0390917003A09167
:102E00007103B09172030196A11DB11D80936F03F0
:102E100090937003A0937103B0937203BF91AF912D
:102E20009F918F913F912F910F900FBE0F901F9008
:102E300018952FB7F89460916B0370916C03809193
:102E40006D0390916E032FBF08953FB7F894809162
:102E50006F0390917003A0917103B091720326B536
:102E6000A89B05C02F3F19F00196A11DB11D3FBFC2
:102E70006627782F892F9A2F620F711D811D911D52
:102E800042E0660F771F881F991F4A95D1F7089572
:102E9000CF92DF92EF92FF92CF93DF936B017C0191
:102EA0000E942517EB01C114D104E104F10479F06B
:102EB0000E9425176C1B7D0B683E7340A0F381E0D8
:102EC000C81AD108E108F108C851DC4FECCFDF91F6
:102ED000CF91FF90EF90DF90CF90089501970097EA
:102EE00039F0880F991F880F991F02970197F1F702
:102EF0000895789484B5826084BD84B5816084BD72
:102F000085B5826085BD85B5816085BDEEE6F0E062
:102F1000808181608083E1E8F0E0108280818260BE
:102F20008083808181608083E0E8F0E0808181603F
:102F30008083E1EBF0E0808184608083E0EBF0E06F
:102F4000808181608083EAE7F0E080818460808313
:102F500080818260808380818160808380818068BD
:102F600080831092C10008958230E8F4E82FF0E0E9
:102F7000EE0FFF1FED58FC4F71836083813041F0ED
:102F8000809169008C7F842B80936900E89A089572
:102F900080916900440F551F440F551F837F842B78
:102FA00080936900E99A0895823068F4813011F0C5
:102FB000E89801C0E998E82FF0E0EE0FFF1FED5808
:102FC000FC4F1182108208951F920F920FB60F923C
:102FD00011242F933F934F935F936F937F938F931E
:102FE0009F93AF93BF93EF93FF938091730390915F
:102FF0007403892B29F0E0917303F0917403099510
:10300000FF91EF91BF91AF919F918F917F916F91C0
:103010005F914F913F912F910F900FBE0F901F9096
:1030200018951F920F920FB60F9211242F933F9372
:103030004F935F936F937F938F939F93AF93BF93C0
:10304000EF93FF938091750390917603892B29F07C
:10305000E0917503F09176030995FF91EF91BF918F
:10306000AF919F918F917F916F915F914F913F9120
:103070002F910F900FBE0F901F901895CF92DF9257
:10308000EF92FF920F931F93CF93DF936C017A011E
:10309000EB01E60EF71E00E010E0CE15DF0561F053
:1030A0006991D601ED91FC910190F081E02DC6016E
:1030B0000995080F191FF1CFC801DF91CF911F911A
:1030C0000F91FF90EF90DF90CF90089561157105FB
:1030D00081F0DB010D900020E9F7AD01415051096D
:1030E000461B570BDC01ED91FC910280F381E02D32
:1030F000099480E090E008950C946618DC01ED914D
:10310000FC910190F081E02D09940F931F93CF93D0
:10311000DF93EC016DE00E947E188C016AE0CE0125
:103120000E947E18800F911FDF91CF911F910F9108
:1031300008958F929F92AF92BF92CF92DF92EF92BB
:10314000FF920F931F93CF93DF93CDB7DEB7A19775
:103150000FB6F894DEBF0FBECDBF7C01C42EE52FA5
:10316000CB01D22E19A221E02D1510F02AE0D22E8B
:103170008E010F5D1F4F8D2C912CA12CB12C6C2D2D
:103180007E2FA50194010E94D01E8C2DD29E801905
:103190001124015011098A3014F4805D01C0895C4A
:1031A000F8018083211531054105510521F0C22E1A
:1031B000E32FCA01E4CFB801C7010E946618A196A7
:1031C0000FB6F894DEBF0FBECDBFDF91CF911F9138
:1031D0000F91FF90EF90DF90CF90BF90AF909F90B6
:1031E0008F900895CF92DF92EF92FF920F931F93EB
:1031F000CF93DF93EC016A017B012115310579F44E
:10320000E881F9810190F081E02D642FDF91CF9169
:103210001F910F91FF90EF90DF90CF9009942A308B
:103220003105E9F477FF1AC06DE20E947E188C0127
:1032300044275527BA014C195D096E097F092AE018
:10324000CE010E949918800F911FDF91CF911F919D
:103250000F91FF90EF90DF90CF9008952AE0B70193
:10326000A601CE01DF91CF911F910F91FF90EF90BA
:10327000DF90CF900C9499189A01AB01662757FD07
:103280006095762F0C94F2182115310541F4DC017C
:10329000ED91FC910190F081E02D642F09940C9444
:1032A00099189A01462F50E060E070E00C944419A0
:1032B0009A01AB0160E070E00C9444194F925F9268
:1032C0006F927F928F929F92AF92BF92CF92DF9236
:1032D000EF92FF920F931F93CF93DF93EC016A015C
:1032E0007B01B22E9A01AB01C701B6010E94721E8A
:1032F000882319F06EED71E027C026013701E894AC
:1033000077F82FEF3FEF4FE75FE7C301B2010E946D
:10331000721E81110DC02FEF3FEF4FE75FE7C30132
:10332000B2010E94BC1C18161CF462EE71E00CC0C5
:103330002FEF3FEF4FE75FE4C701B6010E940B1E7E
:103340001816ACF466EE71E0CE01DF91CF911F91BB
:103350000F91FF90EF90DF90CF90BF90AF909F9034
:103360008F907F906F905F904F900C9466182FEF26
:103370003FEF4FE75FECC701B6010E94BC1C87FD21
:10338000E1CF20E030E0A901C701B6010E94BC1CDA
:1033900087FF0AC06DE2CE010E947E188C01F7FA09
:1033A000F094F7F8F09402C000E010E0A12C60E087
:1033B00070E080E09FE3AB1441F020E030E040E2B9
:1033C00051E40E94C01CA394F6CF9B01AC01C7013D
:1033D000B6010E94581C6B017C010E942D1D2B011F
:1033E0003C010E94591D9B01AC01C701B6010E941E
:1033F000571C6B017C012AE0B301A201CE010E949F
:103400009918080F191FBB2039F06AEE71E0CE0140
:103410000E946618080F191F7B2C772041F120E0CD
:1034200030E040E251E4C701B6010E940F1E6B017B
:103430007C010E94281D4B01AA2497FCA094BA2C61
:103440002AE030E0B501A401CE010E94F218080F75
:10345000191FC501B4010E945B1D9B01AC01C7018E
:10346000B6010E94571C6B017C017A94D6CFC8012B
:10347000DF91CF911F910F91FF90EF90DF90CF9050
:10348000BF90AF909F908F907F906F905F904F9084
:1034900008950C945E190F931F93CF93DF93EC0163
:1034A0000E945E198C01CE010E948518800F911F29
:1034B000DF91CF911F910F9108950E9479170E947B
:1034C0002B01CCE3DBE10E94AB032097E1F30E94E8
:1034D0003C1BF9CFFC0124853585F901E05CFF4FE9
:1034E00080819181F901EE5BFF4F20813181821B48
:1034F000930B8F7399270895FC0184859585FC01B2
:10350000E05CFF4F40815181FC01EE5BFF4F208169
:1035100031814217530741F00190F081E02DE80F0F
:10352000F91F808190E008958FEF9FEF0895FC01CF
:1035300084859585FC01E05CFF4F40815181FC0151
:10354000EE5BFF4F208131814217530779F0A08154
:10355000B181A80FB91F8C91208131812F5F3F4F1E
:103560002F7333273183208390E008958FEF9FEFEF
:103570000895FC0181A1882329F0A489B5898C9143
:1035800086FFFBCF11A20895CF93DF93FC01268520
:103590003785D901A05CBF4F8D919C911197019601
:1035A0008F739927E901CE5BDF4F488159818417DA
:1035B0009507D9F30D90BC91A02DA20FB31F6C936A
:1035C000A685B785A05CBF4F11969C938E93A68964
:1035D000B7892C9181E090E0078C02C0880F991F79
:1035E0000A94E2F7282B2C9381E081A30488F589C3
:1035F000E02D80818064808381E090E0DF91CF9135
:10360000089508951F920F920FB60F9211242F93D1
:103610003F934F938F939F93EF93FF938091C000BD
:1036200082FD1CC04091C60080911D0490911E0433
:1036300001968F73992720911F04309120048217DF
:10364000930771F0E0911D04F0911E04E352FC4FCA
:10365000408390931E0480931D0402C08091C60095
:10366000FF91EF919F918F914F913F912F910F90EB
:103670000FBE0F901F90189587E793E00E946A1A7B
:10368000892B11F00C94011B08951F920F920FB615
:103690000F9211242F933F938F939F93EF93FF9358
:1036A0002091D9033091DA038091DB039091DC0300
:1036B0002817390731F48091C1008F7D8093C100B4
:1036C00014C0E091DB03F091DC03E756FC4F20814E
:1036D0008091DB039091DC0301968F73992790937F
:1036E000DC038093DB032093C600FF91EF919F9151
:1036F0008F913F912F910F900FBE0F901F901895B3
:10370000CF92DF92EF92FF92CF93DF93EC016A01A9
:103710007B01411581EE580761057105F9F0EC89CF
:10372000FD8981E090E008A002C0880F991F0A94EB
:10373000E2F7808360E079E08DE390E0A7019601F5
:103740000E94D01E215031094109510956954795D3
:1037500037952795211580E1380798F0EC89FD8988
:10376000108260E874E88EE190E0A70196010E9463
:10377000D01E215031094109510956954795379579
:103780002795E889F9893083EA89FB89208319A282
:10379000EE89FF89408181E090E09C010C8C02C0A1
:1037A000220F331F0A94E2F7422B4083EE89FF89F0
:1037B00040819C010D8C02C0220F331F0A94E2F756
:1037C000422B4083EE89FF8940819C010E8C02C010
:1037D000220F331F0A94E2F7422B4083EE89FF89C0
:1037E00020810F8C02C0880F991F0A94E2F7809500
:1037F00082238083DF91CF91FF90EF90DF90CF9075
:10380000089510927A031092790388EE93E0A0E075
:10381000B0E080937B0390937C03A0937D03B093EF
:103820007E0380EF91E090937803809377038DED92
:1038300093E0909384038093830389E993E09093CA
:1038400086038093850385EC90E0909388038093B2
:10385000870384EC90E090938A038093890380EC43
:1038600090E090938C0380938B0381EC90E0909395
:103870008E0380938D0382EC90E09093900380936D
:103880008F0386EC90E0909392038093910384E001
:103890008093930383E08093940387E08093950360
:1038A00085E08093960381E08093970308955058B4
:1038B000BB27AA270ED075C166D130F06BD120F09E
:1038C00031F49F3F11F41EF45BC10EF4E095E7FB69
:1038D00051C1E92F77D180F3BA17620773078407C4
:1038E000950718F071F49EF58FC10EF4E0950B2E3C
:1038F000BA2FA02D0B01B90190010C01CA01A00142
:103900001124FF27591B99F0593F50F4503E68F19C
:103910001A16F040A22F232F342F4427585FF3CFDD
:10392000469537952795A795F0405395C9F77EF4AE
:103930001F16BA0B620B730B840BBAF09150A1F0F7
:10394000FF0FBB1F661F771F881FC2F70EC0BA0F7D
:10395000621F731F841F48F4879577956795B79505
:10396000F7959E3F08F0B3CF9395880F08F09927FD
:10397000EE0F979587950895D9D008F481E00895C2
:103980000CD00FC107D140F0FED030F021F45F3FE2
:1039900019F0F0C0511139C1F3C014D198F3992333
:1039A000C9F35523B1F3951B550BBB27AA27621703
:1039B0007307840738F09F5F5F4F220F331F441F48
:1039C000AA1FA9F333D00E2E3AF0E0E830D0915080
:1039D0005040E695001CCAF729D0FE2F27D0660F6D
:1039E000771F881FBB1F261737074807AB07B0E8AC
:1039F00009F0BB0B802DBF01FF2793585F4F2AF0C2
:103A00009E3F510568F0B6C000C15F3FECF3983EA1
:103A1000DCF3869577956795B795F7959F5FC9F71E
:103A2000880F911D9695879597F90895E1E0660FA7
:103A3000771F881FBB1F621773078407BA0720F020
:103A4000621B730B840BBA0BEE1F88F7E095089589
:103A500004D06894B111D9C00895BCD088F09F57A4
:103A600090F0B92F9927B751A0F0D1F0660F771FCA
:103A7000881F991F1AF0BA95C9F712C0B13081F0AA
:103A8000C3D0B1E00895C0C0672F782F8827B85FF2
:103A900039F0B93FCCF3869577956795B395D9F70B
:103AA0003EF490958095709561957F4F8F4F9F4F15
:103AB0000895E89409C097FB3EF490958095709521
:103AC00061957F4F8F4F9F4F9923A9F0F92F96E96A
:103AD000BB279395F695879577956795B795F111DF
:103AE000F8CFFAF4BB0F11F460FF1BC06F5F7F4F7C
:103AF0008F4F9F4F16C0882311F096E911C077238E
:103B000021F09EE8872F762F05C0662371F096E896
:103B1000862F70E060E02AF09A95660F771F881F65
:103B2000DAF7880F9695879597F90895990F000809
:103B3000550FAA0BE0E8FEEF16161706E807F9077F
:103B4000C0F012161306E407F50798F0621B730B1A
:103B5000840B950B39F40A2661F0232B242B252B9B
:103B600021F408950A2609F4A140A6958FEF811D3E
:103B7000811D089597F99F6780E870E060E00895DF
:103B80009FEF80EC089500240A9416161706180675
:103B90000906089500240A94121613061406050651
:103BA0000895092E0394000C11F4882352F0BB0FE2
:103BB00040F4BF2B11F460FF04C06F5F7F4F8F4F45
:103BC0009F4F089557FD9058440F551F59F05F3F80
:103BD00071F04795880F97FB991F61F09F3F79F02F
:103BE00087950895121613061406551FF2CF4695B1
:103BF000F1DF08C0161617061806991FF1CF869533
:103C00007105610508940895E894BB276627772716
:103C1000CB0197F908958ADF08F48FEF08950BD050
:103C2000C0CFB1DF28F0B6DF18F0952309F0A2CF9E
:103C3000A7CF1124EACFC6DFA0F3959FD1F3950F4C
:103C400050E0551F629FF001729FBB27F00DB11D20
:103C5000639FAA27F00DB11DAA1F649F6627B00DB0
:103C6000A11D661F829F2227B00DA11D621F739F99
:103C7000B00DA11D621F839FA00D611D221F749FA7
:103C80003327A00D611D231F849F600D211D822FEE
:103C9000762F6A2F11249F5750408AF0E1F0882335
:103CA0004AF0EE0FFF1FBB1F661F771F881F915042
:103CB0005040A9F79E3F510570F05CCFA6CF5F3F03
:103CC000ECF3983EDCF3869577956795B795F79575
:103CD000E7959F5FC1F7FE2B880F911D96958795FD
:103CE00097F9089523DF880B990B0895A29FB001DF
:103CF000B39FC001A39F700D811D1124911DB29F20
:103D0000700D811D1124911D08950E94761EA59F9E
:103D1000900DB49F900DA49F800D911D11240895C6
:103D2000B7FF0C94851E0E94851E821B930B08957D
:103D3000DB018F939F930E94851EBF91AF91A29F3D
:103D4000800D911DA39F900DB29F900D1124089599
:103D5000AA1BBB1B51E107C0AA1FBB1FA617B707B1
:103D600010F0A61BB70B881F991F5A95A9F78095CD
:103D70009095BC01CD01089597FB072E16F4009491
:103D800007D077FD09D00E94A81E07FC05D03EF49D
:103D9000909581959F4F0895709561957F4F0895F7
:103DA000A1E21A2EAA1BBB1BFD010DC0AA1FBB1F3F
:103DB000EE1FFF1FA217B307E407F50720F0A21BB1
:103DC000B30BE40BF50B661F771F881F991F1A941E
:103DD00069F760957095809590959B01AC01BD0148
:103DE000CF010895052E97FB1EF400940E94091F31
:103DF00057FD07D00E94D01E07FC03D04EF40C9450
:103E0000091F50954095309521953F4F4F4F5F4F7B
:103E1000089590958095709561957F4F8F4F9F4F36
:103E20000895EE0FFF1F0590F491E02D0994FB011A
:103E3000DC0102C001900D9241505040D8F7089526
:043E4000F894FFCF24
:103E44000A88130000022C010000A101A301A801AB
:103E5400A701A901AB01AC01AF01B301B501B601E2
:103E6400B901C301BD01C201C1014E52532C004727
:103E74002C006F66662C006F6E2C0064696D2C003C
:103E84000A5B7765617468657273746174696F6ED7
:103E940046534B5F424D503038355F4448543232BC
:103EA4005F34333372785D0A002D0020003A0044F9
:103EB40043462C005753342C005753332049443D78
:103EC4000020543D002072656C483D002057766503
:103ED4006C3D0020576D61783D00205261696E3D54
:103EE400004E004E4E4500454E4500455345005397
:103EF40053450053005353570057535700574E57D9
:103F0400004E4E5700424D502C004448542C00346F
:103F140002561F1C1F1E1F1E1F1F1E1F1E1F6E6109
:103F24006E00696E66006F7666002E000000000069
:0C3F3400C41A3E186A1A971A7C1AB91AAF
:00000001FF
