:100000000C9463000C9403180C9430180C948B001F
:100010000C948B000C948B000C948B000C948B0034
:100020000C948B000C948B000C948B000C948B0024
:100030000C948B000C948B000C948B000C948B0014
:100040000C9420160C948B000C94391B0C947C1B84
:100050000C948B000C948B000C948B000C948B00F4
:100060000C948B000C948B00000000070002010030
:100070000003040600000000000000000102040864
:100080001020408001020408102001020408102002
:10009000040404040404040402020202020203032E
:1000A00003030303000000002300260029000000D2
:1000B0000000250028002B0000000000240027007D
:1000C0002A00F406381C11241FBECFEFD8E0DEBF93
:1000D000CDBF12E0A0E0B1E0E8E8F4E402C0059092
:1000E0000D92AA34B107D9F714E0AAE4B2E001C036
:1000F0001D92AF36B107E1F710E0C6ECD0E004C0C6
:100100002297FE010E94441FC23CD107C9F70E94FA
:100110005D180C9442220C940000EF92FF920F9312
:100120001F93CF93DF93CDB7DEB72C970FB6F8941C
:10013000DEBF0FBECDBFE982FA820B831C832D8305
:100140003E834F83588769877A878B879C876AE2CB
:1001500071E085EC93E00E94A8184B815C816D8171
:100160007E812AE030E085EC93E00E9437198F8190
:10017000882339F061E371E085EC93E00E94A818D0
:100180000DC066E371E085EC93E00E94A8184AE098
:1001900050E06A8585EC93E00E944A19888599852C
:1001A0008130910541F08230910541F0892B61F455
:1001B0006AE371E005C061E471E002C067E471E0E8
:1001C00085EC93E00E94A8188B85882369F06EE483
:1001D00071E085EC93E00E94A8184AE050E06C853D
:1001E00085EC93E00E944A1962E571E085EC93E0AA
:1001F0000E94A81869817A814AE050E085EC93E07A
:100200000E94441985EC93E02C960FB6F894DEBF5B
:100210000FBECDBFDF91CF911F910F91FF90EF9057
:100220000C94B1181F93CF93DF93EC01162F0E940B
:100230004207682F70E080E090E00E94A616612FD0
:10024000CE01DF91CF911F910C94750744ED62E0D0
:1002500086E10E94E90C83E10E94010C8CE796EA9A
:100260000E945C0B8AE00C94530C40E855E260E07D
:1002700070E085EC93E00E94B71B66E571E085ECC9
:1002800093E00E94A81810926802109267021092E0
:10029000530210925402109255021092560210927C
:1002A0006A0210926902109257021092580210923C
:1002B000590210925A0210926C0210926B02109224
:1002C0005B0210925C0210925D0210925E0210922C
:1002D0006E0210926D0210925F02109260021092F4
:1002E0006102109262021092700210926F021092DC
:1002F00063021092640210926502109266024DEA47
:1003000062E086E10E944C0D0E9426018CE792E09B
:100310000E94CC0780EA92E00E9477144DE850E0FA
:1003200062E081E00C945B14FC0180E031E30AC0E0
:10033000219198E0422F4827880F47FD8327220FFD
:100340009150C1F76150A0F70895CF93DF93EC016E
:100350008A3091052CF460E385EC93E00E94AA18A2
:100360004AE050E0BE0185EC93E0DF91CF910C9420
:100370009C190E94A6114AE050E0BC0185EC93E074
:100380000E949C196FE771E085EC93E00E94A81829
:100390000E94AA110E94A5016FE771E085EC93E02D
:1003A0000E94A8180E94B2110E94A50164ED71E09C
:1003B00085EC93E00E94A8180E94CA110E94A50132
:1003C00061E871E085EC93E00E94A8180E94C211D8
:1003D0000E94A50161E871E085EC93E00E94A818F5
:1003E0000E94BA110E94A50164ED71E085EC93E0D2
:1003F0000C94A818982F92959F708F70282F30E03A
:100400008AE0989F200D311D1124C90108958F9213
:100410009F92AF92BF92CF92DF92EF92FF920F9393
:100420001F93CF93DF93EC018D810E94FA017C0131
:100430008E818F710E94FA018C018F810E94FA01D6
:100440004C018C810E94FA015C018B810E94FA01AF
:100450006C018A818F730E94FA019401A501B60193
:100460000E94D21163E871E085EC93E00E94A81825
:100470000E94B90185EC93E0DF91CF911F910F911C
:10048000FF90EF90DF90CF90BF90AF909F908F90B4
:100490000C94B1183F924F925F926F927F928F921D
:1004A0009F92AF92BF92CF92DF92EF92FF920F9303
:1004B0001F93CF93DF93CDB7DEB727970FB6F8948E
:1004C000DEBF0FBECDBF2B013C01342E49010E947F
:1004D0005F1D5B01BF926F9388E891E09F938F93BC
:1004E0001F920F939F928F920E945C1F0FB6F894F9
:1004F000DEBF0FBECDBF332009F483C06BE871E0CF
:10050000C4010E94511F132D1150C12CD12C760112
:10051000C39408C0AAE0B0E0A70196010E94B91EEA
:100520006B017C013A949FEF3912F4CF20E030E068
:10053000A901C301B2010E94421EA501662757FD11
:100540006095762F87FD09C0CB01BA010E94921DEC
:100550009B01AC01C301B20106C0CB01BA010E94EC
:10056000921DA30192010E948E1C2B013C01C70128
:10057000B6010E94901D9B01AC01C301B2010E9413
:10058000461E0E94641DB62EA72E782E692E262F99
:10059000372F482F592F8AE0C82ED12CE12CF12C6F
:1005A00001C01150CA01B901A70196010E94041FA0
:1005B0002115310541055105A1F706C06DE871E02F
:1005C000C4010E94511F11501111F8CF6F927F92F8
:1005D000AF92BF9288E891E09F938F931F9287E03C
:1005E0008F938E010F5F1F4F1F930F930E945C1F0D
:1005F000B801C4010E94511F0FB6F894DEBF0FBEB0
:10060000CDBF27960FB6F894DEBF0FBECDBFDF91EA
:10061000CF911F910F91FF90EF90DF90CF90BF90FF
:10062000AF909F908F907F906F905F904F903F9092
:1006300008952F923F924F925F926F927F928F9286
:100640009F92AF92BF92CF92DF92EF92FF920F9361
:100650001F93CF93DF93CDB7DEB7EE970FB6F89425
:10066000DEBF0FBECDBF8AAF8B0180E2EAE0F1E0D2
:10067000DE01119601900D928A95E1F7DB0111964A
:10068000EC9111978E2F90E0BC0124E07595679551
:100690002A95E1F74C91B0E14B9FA0011124362E31
:1006A000342A7E2F777060E0F8019281692B83FBFA
:1006B000222720F930E083FF04C060957095620F17
:1006C000731F882777FD8095982F0E94921D2DEC2F
:1006D0003CEC4CEC5DE30E94461E562E672E782EB5
:1006E000892ED8011396FC90BFE7FB22F8016481A4
:1006F00070E080E090E00E94921D2BE734E14EEA2A
:100700005EE30E94461E962EA72EB82EC92ED80153
:1007100015966C9170E080E090E00E94921D2BE7AE
:1007200034E14EEA5EE30E94461ED62EE72E282EC6
:10073000492EF8018681782F7F7060E08781682BD1
:10074000882777FD8095982F0E94921D2AE939E924
:1007500049E95EE30E94461E6BAF7CAF8DAF9EAF52
:10076000FAADF83229F4D80118961C911F7001C017
:1007700010E006E09E012C5C3F4F41E0652D762D98
:10078000872D982D0E944A029E01225D3F4F41E035
:10079000692D7A2D8B2D9C2D0E944A029E01285D89
:1007A0003F4F41E06D2D7E2D822D942D0E944A02F7
:1007B00007E09E012F5D3F4F41E0EBADACADFDADDD
:1007C0005EAD6E2F7A2F8F2F952F0E944A02BAAD01
:1007D000B83209F05CC06FE871E085EC93E00E94EC
:1007E000A8184AE050E0632D85EC93E00E944A1976
:1007F00065E072E085EC93E00E94A81822E030E00A
:10080000452D562D672D782D85EC93E00E949B1A7F
:1008100067E971E085EC93E00E94A8184AE050E097
:100820006F2D85EC93E00E944A196EE971E085EC2A
:1008300093E00E94A81822E030E0492D5A2D6B2D3C
:100840007C2D85EC93E00E949B1A65EA71E085ECB3
:1008500093E00E94A81822E030E04D2D5E2D622D1D
:10086000742D85EC93E00E949B1A6CEA71E085EC94
:1008700093E00E94A818FE01E10FF11DE10FF11DA8
:100880006181728185EC93E00E94A8184EC0EAADA8
:10089000EA3209F057C06AEB71E085EC93E00E9400
:1008A000A8184AE050E0632D85EC93E00E944A19B5
:1008B00065E072E085EC93E00E94A81822E030E049
:1008C000452D562D672D782D85EC93E00E949B1ABF
:1008D00067E971E085EC93E00E94A8184AE050E0D7
:1008E0006F2D85EC93E00E944A196EE971E085EC6A
:1008F00093E00E94A81822E030E0492D5A2D6B2D7C
:100900007C2D85EC93E00E949B1A65EA71E085ECF2
:1009100093E00E94A81822E030E04D2D5E2D622D5C
:10092000742D85EC93E00E949B1A63EB71E085ECDB
:1009300093E00E94A818BE016F5D7F4F85EC93E0A5
:100940000E94C718EE960FB6F894DEBF0FBECDBF5B
:10095000DF91CF911F910F91FF90EF90DF90CF909B
:10096000BF90AF909F908F907F906F905F904F90CF
:100970003F902F9008958F929F92AF92BF92CF9207
:10098000DF92EF92FF920F931F930E945E0B8823DA
:1009900009F462C08091AE028F5F8093AE028091B5
:1009A000110390E024E0959587952A95E1F785302D
:1009B0009105ACF18730910524F00A97029778F5FC
:1009C00016C01091190368E081E193E00E94940140
:1009D00091E0181711F090E005C08091AF028F5F91
:1009E0008093AF028AE28093B00289E015C0109133
:1009F0001A0369E081E193E00E94940191E01817E5
:100A000011F090E005C08091AF028F5F8093AF023C
:100A100088E28093B0028AE08093040101C090E0F4
:100A20008091B102811118C09923B1F00E946A1619
:100A30006093B2027093B3028093B4029093B502B4
:100A400081E08093B1028AE0E1E1F3E0A6EBB2E05D
:100A500001900D928A95E1F78091B102882309F403
:100A600069C00E946A160091B2021091B3022091EF
:100A7000B4023091B502601B710B820B930B633390
:100A80007105810591050CF09CC154C0163021F40C
:100A900086EB92E00E9407021A3011F0153031F413
:100AA00066EB72E08091B0020E9419038091C1024E
:100AB0008093C2028F5F8093C1028091B0028093C5
:100AC000C302109104011093C40225EC32E086EBBE
:100AD00092E0412F50E0BC01C9010E94481FA12FA4
:100AE000AD5FB0E0AE53BD4F86E0E4E0F3E00190CF
:100AF0000D928A95E1F7175F1093C0024DEA62E00C
:100B000086E10E94E90C02C00E945E0B0E945C0C10
:100B10008823D1F321E04091C00262EC72E081E0D1
:100B20000E94CC0C0E9426011092AE021092AF02DD
:100B30001092B1020E946A16609375027093760259
:100B40008093770290937802009171021091720263
:100B500020917302309174026B017C01C01AD10A9A
:100B6000E20AF30A009100011091010120910201B3
:100B7000309103010C151D052E053F0508F029C114
:100B80006093710270937202809373029093740267
:100B900060E08CE792E00E94120161E08CE792E055
:100BA0000E9412014091510250915202BA01660F07
:100BB000771F69597D4F80914B0290914C02FB0148
:100BC00020813181821B930B90934C0280934B02C6
:100BD000440F551F440F551F4D5A5D4F80914D02D4
:100BE00090914E02A0914F02B0915002FA01008103
:100BF000118122813381801B910BA20BB30B809357
:100C00004D0290934E02A0934F02B09350028CE796
:100C100092E00E941708E0915102F0915202DF0128
:100C2000AA0FBB1FA959BD4F80914B0290914C0256
:100C30002D913C91820F931F90934C0280934B0215
:100C4000DF01AA0FBB1FAA0FBB1FAD5ABD4F0091FA
:100C50004D0210914E0220914F02309150024D9161
:100C60005D916D917C91040F151F261F371F009316
:100C70004D0210934E0220934F0230935002319652
:100C8000F0935202E093510235973CF041E04093DB
:100C90004A02109252021092510265E070E00E94E6
:100CA000F01E7093050360930403C901B80125E0A9
:100CB00030E040E050E00E94261F2093060330936E
:100CC0000703409308035093090380914A02882345
:100CD00009F440C062E072E085EC93E00E94A8183D
:100CE0006091040370910503882777FD8095982F04
:100CF0000E94921D20E030E040E251E40E94F71C87
:100D0000AB01BC0122E030E085EC93E00E949B1A2D
:100D100062E571E085EC93E00E94A81860910603FB
:100D20007091070380910803909109030E94921D1E
:100D300020E030E048EC52E40E94F71CAB01BC011B
:100D400022E030E085EC93E00E949B1A85EC93E072
:100D50000E94B11880EA92E00E9439156B017C0173
:100D600060E080EA92E00E9487154B015C0169E037
:100D700072E085EC93E00E94A81822E030E0B50113
:100D8000A40185EC93E00E949B1A61E172E085EC7E
:100D900093E00E94A81822E030E0B701A60185EC9C
:100DA00093E00E949B1A85EC93E01F910F91FF90B6
:100DB000EF90DF90CF90BF90AF909F908F900C946A
:100DC000B1181091B60212951F701B3009F05ECE5B
:100DD0005FCE1F910F91FF90EF90DF90CF90BF906B
:100DE000AF909F908F90089526E046E166E080EAFC
:100DF00092E00E94701441E062E08EE992E00E946D
:100E0000110A8EE992E090937D0280937C028EEE2F
:100E100080937E0283E080939D0210927B0208956E
:100E20000F931F93CF93DF93EC01062F60E088812F
:100E300099810E947B0A182F602F888199810E94D6
:100E40007B0A312F20E0282BC901DF91CF911F9120
:100E50000F9108951F93CF93DF93EC01162F6A81B2
:100E6000888199810E94660A612F888199810E94F8
:100E7000310A6A81616088819981DF91CF911F91E8
:100E80000C94660A1F93CF93DF93EC01162F6A81AF
:100E9000888199810E94660A64EF888199810E9405
:100EA000310A112339F069A180E4689FB00111244F
:100EB000646301C06EE2888199810E94310A888151
:100EC00099810E94220A89A1882331F0813031F072
:100ED000823031F48EE005C085E003C088E001C0B7
:100EE0008AE1DF91CF911F9108951F93CF93DF93F4
:100EF000EC01162F66EF0E942A0711110BC061E06A
:100F0000CE010E941007A0E0B0E0898F9A8FAB8FCE
:100F1000BC8F33C060E0CE010E941007AC0160E0DE
:100F200070E009A004C0440F551F661F771F0A9484
:100F3000D2F74D8F5E8F6F8F78A361E088819981A2
:100F40000E947B0A90E049A128E030E0241B31098F
:100F500002C0959587952A95E2F7AA2797FDA09557
:100F6000BA2F4D8D5E8D6F8D78A1482B592B6A2B32
:100F70007B2B4D8F5E8F6F8F78A384E0189FC00D01
:100F8000D11D1124FE017996698D71818281938131
:100F9000DF91CF911F910895CF93DF93EC016AEA1F
:100FA0000E942A0760E0CE010E9410079C838B8379
:100FB00060E0CE010E9410079E838D8360E0CE0129
:100FC0000E94100798878F8360E0CE010E9410076F
:100FD0009C8B8B8B60E0CE010E9410079E8B8D8BCB
:100FE00060E0CE010E941007988F8F8B60E0CE01E9
:100FF0000E9410079A87898760E0CE010E9410073F
:101000009C878B8760E0CE010E9410079E878D87AA
:1010100060E0CE010E941007988B8F8761E0CE01BF
:101020000E9410079A8B898BDF91CF9108953F9290
:101030004F925F926F927F928F929F92AF92BF92E8
:10104000CF92DF92EF92FF920F931F93CF93DF9394
:10105000CDB7DEB72C970FB6F894DEBF0FBECDBF6D
:101060009C878B877B018A01DC015D968D919D9128
:101070000D90BC91A02D8D839E83AF83B887EB85A7
:10108000FC858789908D218D328D438D548D281B51
:10109000390B41095109A589B6890E94B91E4B0136
:1010A0005C01AFE0B594A79497948794AA95D1F783
:1010B00067857089882777FD8095982FBBE0660F3C
:1010C000771F881F991FBA95D1F721893289442744
:1010D00037FD4095542F280D391D4A1D5B1D0E9478
:1010E000261F280D391D4A1D5B1DDA01C90108960E
:1010F000A11DB11D64E0B595A795979587956A9553
:10110000D1F7F70191838083DA01C901805A9F40AA
:10111000A109B10989839A83AB83BC839C01AD018A
:10112000BC01CD010E94CC1E4B015C017CE0B5945A
:10113000A794979487947A95D1F7AB85BC8513963D
:101140000D90BC91A02DBA87A987EB85FC8531A0B5
:10115000A781B0850E94C41E6B017C01ADE0F594AF
:10116000E794D794C794AA95D1F7A185B285A50134
:1011700094010E94C41EBB2797FDB095AB2FC80EEB
:10118000D91EEA1EFB1EF2E0CF0ED11CE11CF11CA1
:1011900082E0F594E794D794C7948A95D1F780E8D4
:1011A000D80EE11CF11CEB85FC85A389B489A7014D
:1011B00096010E94B91E2B013C019FE07694679432
:1011C000579447949A95D1F7E985FA856F01EE24F3
:1011D000D7FCE094FE2C22E0CC0CDD1CEE1CFF1CA6
:1011E0002A95D1F7EB85FC85A385B485A5019401EB
:1011F0000E94C41E4B015C013BE0B594A7949794F8
:1012000087943A95D1F7A581B68129813A814B819E
:101210005C810E94C41E4BE09595879577956795F4
:101220004A95D1F7860E971EA81EB91EC80CD91C68
:10123000EA1CFB1C032C04C0CC0CDD1CEE1CFF1CA8
:101240000A94D2F7F2E0CF0ED11CE11CF11C52E05F
:10125000F594E794D794C7945A95D1F78D819E81E0
:10126000AF81B8858C199D09AE09BF098D839E8316
:10127000AF83B88760E573EC80E090E004C095959B
:101280008795779567953A94D2F72D813E814F8166
:1012900058850E94CC1E97FD0BC0660F771F881FD4
:1012A000991FA30192010E94041F49015A010AC01B
:1012B000A30192010E94041F49015A01880C991C44
:1012C000AA1CBB1C9927B7FC9A958B2D7A2D692DEA
:1012D0009B01AC010E94CC1E9B01AC01AEEDBBE0BA
:1012E0000E94B91E6C01FF24D7FCF094EF2CA3E4FC
:1012F000B3EEA50194010E94C71EBB2797FDB095D0
:10130000AB2FC80ED91EEA1EFB1E9FECC90E9EE035
:10131000D91EE11CF11C44E0F594E794D794C794DE
:101320004A95D1F7C80CD91CEA1CFB1CD801CD92F8
:10133000DD92ED92FC9213972C960FB6F894DEBFD7
:101340000FBECDBFDF91CF911F910F91FF90EF9016
:10135000DF90CF90BF90AF909F908F907F906F90D5
:101360005F904F903F900895FC018081882311F099
:101370008D5F01C082E10C943B17FC0180818823C2
:1013800011F08D5F01C082E10E94AA170895FC014F
:101390008081882311F08D5F01C082E10C94731766
:1013A000FC018081882311F0835F01C083E10C94EC
:1013B0003B17FC018081882311F0835F01C083E12A
:1013C0000C9473171F93CF93DF93D82FC92F162F29
:1013D00061E0111160E08D2F9C2F0E94B409612FF4
:1013E0008D2F9C2FDF91CF911F910C94C709CF9324
:1013F000DF93EC01898190E00E94CC1661E0CE0180
:10140000DF91CF910C94D909CF93DF93EC018981BF
:1014100090E00E94CC1660E0CE01DF91CF910C9459
:10142000D909CF93DF93EC016883498361E00E947F
:10143000E20961E0CE010E94D009CE01DF91CF9197
:101440000C94F709CF93DF93EC0160E00E94E2096E
:10145000CE010E94F70961E0CE01DF91CF910C949B
:10146000E209EF92FF920F931F93CF93DF93EC016A
:10147000E62E0E94040A08E010E040E8F42E6F2DEA
:101480006E21CE010E94E209CE010E94F709CE0131
:101490000E94040AF6940150110989F761E0CE0117
:1014A0000E94E209CE010E94F709CE010E94BD0907
:1014B000182FCE010E94040A81E0111180E0DF9113
:1014C000CF911F910F91FF90EF9008951F93CF93AD
:1014D000DF93EC01162F0E94040ACE010E94F70947
:1014E00060E0CE010E94E209612FCE01DF91CF9131
:1014F0001F910C94310ADF92EF92FF920F931F938A
:10150000CF93DF93EC01D62E08E010E050E8E52EF3
:10151000F12CCE010E94F709CE010E94BD09811174
:10152000FE28CE010E94040AE6940150110989F7B1
:101530006D2DCE010E94E209CE010E94F709CE0175
:101540000E94040ADD2019F0CE010E94220A61E007
:10155000CE010E94E2098F2DDF91CF911F910F9153
:10156000FF90EF90DF9008959C012627622F6295EF
:101570006227062E669566956025062E669560257F
:101580006770022E232F669507946795302D2627C6
:101590000694679530252627C90108958EBD0DB4A0
:1015A00007FEFDCF8EB50895CF92DF92EF92FF92A6
:1015B0001F93CF93DF93182FE89885B1C12CD12CBE
:1015C0007601C394B701A6010090050104C0440F41
:1015D000551F661F771F0A94D2F74095482345B9D7
:1015E000892F0E94CE0AD82F80E0C82F812F0E9419
:1015F000CE0A95B10090050104C0CC0CDD1CEE1C98
:10160000FF1C0A94D2F79C2995B9E89AC82BCE0101
:10161000DF91CF911F91FF90EF90DF90CF900895D1
:1016200080915E0390915F038F7090935F0380932E
:101630005E0380915E0390915F03886090935F03E7
:1016400080935E0380915E0390915F030C94D40AB3
:1016500025B181E090E0A0E0B0E00090050104C079
:10166000880F991FAA1FBB1F0A94D2F7282B25B9F0
:1016700024B1282B24B961E08AE00E94731761E04D
:101680008AE00E943B1761E08BE00E943B1760E01C
:101690008CE00E943B1761E08DE00E943B1780E5E3
:1016A0008CBD8DB581608DBD60E082E00E943B17EE
:1016B00061E082E00C9473170C94D40A809160036B
:1016C000873009F040C080916203882359F09091DF
:1016D0006103981708F06AC080916103873408F0AD
:1016E00065C031C0809112032091610390E004969F
:1016F00030E0821793070CF463C080916103873454
:1017000008F05EC020C081E090E090935803809381
:1017100057038091110386FF5CC090916303892F6A
:101720008F718F3109F455C08091110389278F7112
:1017300009F44FC008C0E0910A03F0910B03309701
:1017400009F04FC051C080916003843069F5109258
:101750001203109261038FEF9FEF909358038093D1
:10176000570360916403662331F00E94B40A90939A
:1017700058038093570387E08093600381E0809350
:101780005A0383EA94E90E94D40A80915E039091FF
:101790005F03886D90935F0380935E0380915E0387
:1017A00090915F030E94D40A80E0089584E08093C2
:1017B000600381E090E090935803809357031FC02B
:1017C00084E08093600380911203833408F09BCF00
:1017D000A0CF8091570390915803892B09F4ABCF88
:1017E00003C080E009950BC08FEF9FEFDC01809371
:1017F0000C0390930D03A0930E03B0930F0381E0AD
:101800000895CF92DF92EF92FF920F931F93CF93A1
:10181000C82F082F10E0C801966C0E94D40ACF7719
:101820002C2F30E02F5F3F4F442737FD4095542F3A
:101830006BEF72E485E090E00E94041F69017A0179
:10184000C801880F892F881F990B27E0289F8001E6
:10185000299F100D11240F5F1F4F9801442737FD5A
:101860004095542FC701B6010E94041F13E05695FE
:101870004795379527951A95D1F72D573C4F4F4FE0
:101880005F4FCA01B90124E833E040E050E00E9414
:10189000041F20935903CF911F910F91FF90EF9058
:1018A000DF90CF900895811103C0109262030895D4
:1018B0008F5F80936203089580916003873021F4E5
:1018C00080916103882311F080E008950E94100B3D
:1018D00084E08093600381E0089586FD05C0807EEA
:1018E000909163039F71890F80931103E0910A0324
:1018F000F0910B03309711F081E009958FEF9FEF86
:101900009093580380935703809157039091580305
:10191000609164030E94B40A909358038093570324
:1019200088E08093600380915E0390915F038863F9
:1019300090935F0380935E0380915E0390915F03B9
:101940000C94D40ACF93C82F4093120323E133E0C1
:1019500050E0C9010E94481F8C2FCF910C946D0C50
:1019600016C08823A1F093B7917F833021F0823095
:1019700021F42CE003C024E001C020E0922B93BFAF
:1019800093B7916093BF889593B79E7F93BF9091D3
:101990006003943031F70895CF93DF931F92CDB752
:1019A000DEB729830E94A20C2981822F0F90DF913C
:1019B000CF910C94B00C809163038F7139F040E0AB
:1019C00050E06CED7DE080E00C94D31780E00C9447
:1019D000F317CF938093630340936403609365038D
:1019E0000E94DB0C10926203E89885E092E89093E5
:1019F0005F0380935E0380915E0390915F030E947A
:101A0000D40A8091650320E1829FC0011124876C74
:101A100090680E94D40A80E496EA0E94D40A86E084
:101A20000E94010C82EA94E90E94D40A8CEA92ECAA
:101A30000E94D40AC0916403CC2341F083E89AEC5D
:101A40000E94D40A8C2F90E09E6C06C08BE89AEC22
:101A50000E94D40A8DE29EEC0E94D40A83E894ECA2
:101A60000E94D40A80E598E90E94D40A87E79CEC9A
:101A70000E94D40A80E090EE0E94D40A80E098ECA4
:101A80000E94D40A89E490EC0E94D40A84E08093F6
:101A90006003E89ACF9108951F93CF93DF9300D00E
:101AA000CDB7DEB7182F8093630340936403609330
:101AB00065034A8369830E94280B0E94DB0C82E83D
:101AC0009AEC0E94D40A80E09EEF0E94D40A85E03E
:101AD0008093600393B7917F93BF4A81698107C068
:101AE00093B7916093BF889593B79E7F93BF809182
:101AF00060038530A9F3812F0E94E90C8091630374
:101B00000F900F90DF91CF911F910895CF92DF92A8
:101B1000EF92FF92CF936B017C01C0E005C0CF5FD5
:101B2000F694E794D794C7948FEFC816D104E104D4
:101B3000F10409F0A0F720915E0330915F0321FFCB
:101B40000FC020915E0330915F032D7F30935F03C0
:101B500020935E0380915E0390915F030E94D40AFC
:101B6000C114D104E104F10409F18C2F992787FDF8
:101B70009095382F2227D701C601906E822B932B88
:101B80000E94D40A80915E0390915F0382609093DB
:101B90005F0380935E0380915E0390915F03CF911A
:101BA000FF90EF90DF90CF900C94D40ACF91FF90EC
:101BB000EF90DF90CF9008951F93CF93DF93E89835
:101BC00085B141E050E060E070E00090050104C0A4
:101BD000440F551F661F771F0A94D2F7409548237C
:101BE00045B980E00E94CE0AD82F80E0C82F0E941D
:101BF000CE0AC82BD7FF05C080916003873009F457
:101C0000F3C095B141E050E060E070E00090050164
:101C100004C0440F551F661F771F0A94D2F7942BF8
:101C200095B9E89AD0935D03C0935C0320915C035F
:101C300030915D0337FFB5C080916003873009F0B4
:101C400060C080916103811104C09091640391117F
:101C5000D6C080916103E82FF0E0E05FFC4F108375
:101C60008F5F809361038091570390915803612F98
:101C70000E94B40A909358038093570340915A03EB
:101C8000433020F58091610390E002976091590301
:101C900070E00E94F01E892B09F4BCC017C0FC0143
:101CA000EB5EFD4F808105C0FC01EB5EFD4F808146
:101CB00082958F7080935A03833040F490E0880FB0
:101CC000991F0196806A94690E94D40A80916203E8
:101CD000882331F090916103981708F0A4C00BC0DD
:101CE000809112032091610390E0049630E0821706
:101CF00093070CF498C080916103873408F093C077
:101D000050C08091600387FF1AC0E0911203809158
:101D10006003982F9F5F90936003ED5FE80FF0E002
:101D2000E05FFC4FC08180915703909158036C2F66
:101D30000E94B40A90935803809357032DC080915A
:101D40006003982F9F5F90936003833011F12CF410
:101D5000882399F08130F9F416C08B3019F08C305B
:101D6000D1F402C0CDE218C0C09164039091120377
:101D70008EEF891B809360030FC080915703909171
:101D80005803C82F09C08091570390915803C92F59
:101D900003C00E94100BCAEA8C2F90E0986B0E943F
:101DA000D40A80915C0390915D0396FF03C086E0A6
:101DB0008093600380915C0390915D0394FF08C061
:101DC00060E070E0CB010E94860D81E080935B03B0
:101DD00080915C0390915D0395FF28C00E94100BD9
:101DE00084E08093600322C08CB581608CBD80E06C
:101DF0000E94CE0A182F9CB59E7F9CBD02CF809179
:101E00006103E82FF0E0E05FFC4F90838F5F8093E9
:101E100061031FCF20915C0330915D03842F90E01C
:101E200030FD3DCF41CF0E94100BBBCFDF91CF9152
:101E30001F9108952F923F924F925F926F927F92DF
:101E40008F929F92AF92BF92CF92DF92EF92FF92CA
:101E50000F931F93CF93DF93EA012CE3C22ED12C73
:101E6000E12CF12CA70196010E94041F6883CA018E
:101E7000B901A70196010E94041F6983CA01B90133
:101E800028E130E040E050E00E94041F19012A01DF
:101E90006A83CA01B9016C5F7F4F8F4F9F4F27E064
:101EA00030E040E050E00E94041F6F5F6B83812CA4
:101EB000912C540120E004E610E030E9632E7724F1
:101EC000739401C02F5FE22FF0E0EE54F84F83E0EF
:101ED000E82EF12CEE22FF22E114F10489F4CF0167
:101EE000B8010E94F01E892B29F08EE691E0A0E057
:101EF000B0E00AC0CF01B3010E94F01E892BA9F304
:101F00008DE691E0A0E0B0E0880E991EAA1EBB1EEF
:101F1000D501C401AA27BB27281639064A065B0645
:101F200088F62E83E114F10499F4CF0164E670E0A1
:101F30000E94F01E892B29F08EE691E0A0E0B0E02F
:101F40000BC0CF0160E971E00E94F01E892BA1F364
:101F50008DE691E0A0E0B0E0881A990AAA0ABB0ACF
:101F600092018101081919092A093B09CF0164E688
:101F700070E00E94F01E6C01CF0160E971E00E94E8
:101F8000F01EE8E1F2E0A0E0A13059F4E114F10420
:101F900051F4C114D10411F04DE106C00097E1F3F2
:101FA00002C0408101C04CE150E060E070E00417E5
:101FB00015072607370740F0041B150B260B370BB8
:101FC000AF5F3196AC3001F7AF5FAD830F5F0C832D
:101FD000DF91CF911F910F91FF90EF90DF90CF9005
:101FE000BF90AF909F908F907F906F905F904F9039
:101FF0003F902F900895CF92DF92EF92FF926B0166
:102000007C018091680390916903A0916A03B0916B
:102010006B03C816D906EA06FB0671F04CE653E0DE
:10202000C701B6010E941A0FC0926803D0926903DB
:10203000E0926A03F0926B03FF90EF90DF90CF90F5
:1020400008950E94FB0F2091720330E02E54384F08
:10205000C90108956F927F928F929F92AF92BF9223
:10206000CF92DF92EF92FF920F931F93CF93DF9364
:10207000FC010681A02FB0E020E833E341EE51E0FF
:102080000E94B91E4B015C0120E030E08D0144E666
:10209000E42EF12C50E9C52EDD24D3941DC0E901B6
:1020A000CE54D84FCE0183709927892B99F4CE0155
:1020B000B7010E94F01E892B31F4CE01B6010E94B7
:1020C000F01E892B39F480E8880E81E5981E81E0A6
:1020D000A81EB11C2F5F3F4F2017310704F3658006
:1020E000712C0E54184FC80164E670E00E94F01E77
:1020F0007C01C80160E971E00E94F01E6C01C1E042
:10210000D0E00370112724C0C230D10589F4011535
:10211000110571F4E114F10419F4C114D10441F46E
:1021200080E8880E8BE3981E86E2A81EB11C0FC0C3
:10213000DE01A95EBD4FAC91B0E020E831E541E0A1
:1021400050E00E94B91E860E971EA81EB91E219649
:10215000C615D705CCF24181228130E0A0E1BEE076
:102160000E94AD1E6B017C01242FACE3B0E00E9405
:10217000AD1EC60ED71EE81EF91E8081C80ED11CEA
:10218000E11CF11CA481B0E0119720E831E541E0A9
:1021900050E00E94C41EC60ED71EE81EF91EC80CD1
:1021A000D91CEA1CFB1CB601C701DF91CF911F911E
:1021B0000F91FF90EF90DF90CF90BF90AF909F90E6
:1021C0008F907F906F9008950F931F936093730388
:1021D00070937403809375039093760300910601C6
:1021E000109107012091080130910901060F171F76
:1021F000281F391F00937B0310937C0320937D03DA
:1022000030937E0382E090E09093800380937F037D
:102210000E946A1660937703709378038093790322
:1022200090937A031F910F910895CF92DF92EF92CE
:10223000FF920F931F931AC00F5F1F4F2F4F3F4FF7
:102240000093730310937403209375033093760304
:1022500048EEC40E43E0D41EE11CF11CC09277038B
:10226000D0927803E0927903F0927A030E946A1682
:10227000C0907703D0907803E0907903F0907A03D0
:102280006C197D098E099F090091730310917403E5
:102290002091750330917603683E73408105910566
:1022A00058F680917B0390917C03A0917D03B091BF
:1022B0007E03081719072A073B07C8F1E091660358
:1022C000F0916703309799F10995611571058105C2
:1022D000910519F00E94E4102AC0809106019091A6
:1022E0000701A0910801B091090140917303509139
:1022F00074036091750370917603840F951FA61F78
:10230000B71F80937B0390937C03A0937D03B093CE
:102310007E0381E090E020917F0330918003232BA6
:1023200011F480E090E09093800380937F036091AC
:1023300073037091740380917503909176031F91DC
:102340000F91FF90EF90DF90CF9008950E941511AC
:102350000C9421100E9415110E94FB0F80917103B3
:1023600090E008950E9415110E94FB0F8091700368
:1023700090E008950E9415110E94FB0F80916C035C
:1023800090E008950E9415110E94FB0F80916D034B
:1023900090E008950E9415110E94FB0F80916E033A
:1023A00090E00895EF92FF920F9394E6E916F104FE
:1023B0002CF092EBE91A97E0F90A03C09EE1E90ECE
:1023C000F11CE092720300937103209370038093D9
:1023D0006E0360936D0340936C038CE693E00E9460
:1023E0002A100F91FF90EF900C94E410CF92DF929F
:1023F000EF92FF920F931F9380918103882309F43A
:1024000049C28091910390919203A0919303B0915E
:10241000940380938D0390938E03A0938F03B093C6
:1024200090030E947C1660939103709392038093B3
:1024300093039093940320919503222319F0109213
:10244000950328C22091860330918703C0908D03A5
:10245000D0908E03E0908F03F090900337FDF1C190
:10246000DC01CB018C199D09AE09BF0900919603CF
:102470001091970320E030E080179107A207B3077F
:1024800008F4DBC1DEC1813C22E1920708F402C2FC
:102490001092980368E270E00E94DC1EFB017093CA
:1024A0009A03609399039B01220F331F260F371F56
:1024B000C9016AE070E00E94DC1E7093970360938C
:1024C00096033093A6032093A5033093A80320938B
:1024D000A70353E0EE0FFF1F5A95E1F7F093AA030D
:1024E000E093A903A4C12091860330918703232B95
:1024F000A9F42091A5033091A6032817390708F401
:10250000B9C11092A4031092A20310929B031092DF
:102510009C0310929D0310929E0389C12091860313
:102520003091870321303105C9F42091990330910E
:102530009A0367E0629FA001639F500D11248417E6
:10254000950708F497C16FE0629FA001639F500D4B
:1025500011244817590708F06AC18CC120918603DD
:1025600030918703243931050CF061C16091AB03D0
:10257000660F6093AB032091A5033091A603281743
:10258000390710F06E700FC02091A7033091A80397
:102590008217930758F02091A9033091AA032817B6
:1025A000390720F061606093AB03A6C020919903C6
:1025B00030919A0374E1729FA001739F500D112412
:1025C0008417950708F456C170E5729FA001739FA8
:1025D000500D11244817590708F44CC161FD4AC138
:1025E00080918603909187038339910509F449C14D
:1025F00080918603909187038338910509F03AC151
:1026000040C181E08093A30340919B0350919C03C0
:1026100060919D0370919E038091AE039091AF03F2
:10262000A091B003B091B103481759076A077B071F
:1026300019F59091A2038091B50398131DC0909154
:10264000A3038091B603981317C09091A4038091BF
:10265000B703981311C090919F038091B203981310
:102660000BC02091A0033091A1038091B3039091FE
:10267000B4032817390759F0109298038CE0E9E960
:10268000F3E0ACEAB3E001900D928A95E1F7809116
:1026900098038F5F8093980390918503891738F191
:1026A000809182038111E6C081E080938203E091F2
:1026B0008303F0918403E0909903F0909A030091D2
:1026C0009B0310919C0320919D0330919E034091A8
:1026D0009F035091A0036091A1037091A203809188
:1026E000A3039091A403099510928203C3C0109292
:1026F000870310928603CEC0809186039091870352
:1027000064E070E00E94F01E8130910509F08FC0F6
:1027100020918603309187032A3631053CF580915C
:102720009B0390919C03A0919D03B0919E03880F01
:10273000991FAA1FBB1F80939B0390939C03A09398
:102740009D03B0939E032091AB032F70213009F4B9
:102750006EC0243009F08EC0816080939B039093FB
:102760009C03A0939D03B0939E0361C020918603B8
:10277000309187032E36310584F48091AB038F703E
:10278000813021F0843009F075C003C010929F039E
:102790004EC081E080939F034AC020918603309110
:1027A000870322373105B4F42091AB032F70213019
:1027B00029F048F0243009F05DC007C01092A10351
:1027C0001092A00334C082E090E09093A103809324
:1027D000A0032DC0809186039091870382389105D4
:1027E00084F48091A203880F8093A2039091AB039D
:1027F0009F709130E1F09430E9F581608093A203FD
:1028000016C08091860390918703823991057CF4EC
:102810008091A403880F8093A4039091AB039F70D1
:10282000913029F0943031F581608093A403809138
:1028300086039091870301961FC081E080939503E2
:1028400029C08091890390918A039601281B390B36
:10285000C901C0928903D0928A03E0928B03F0925F
:102860008C0320918603309187032F3F3F4F09F05F
:102870003ACE09CE8FEF9FEF909387038093860324
:1028800009C080918603909187038339910509F0EF
:10289000BBCEB7CE1F910F91FF90EF90DF90CF90FE
:1028A00008958FEF9FEF909387038093860381E0D5
:1028B00080938103089580938803609385035093E8
:1028C0008403409383030E9451148091880387FD01
:1028D00006C041E050E066EF71E10C94D317089513
:1028E000FC0166834783208781E085870895CF9325
:1028F000DF93EC0160E08E810E943B1761E08E81E6
:102900000E94731719861A861B861C86DF91CF9149
:102910000895DF92EF92FF920F931F93CF93DF936F
:10292000EC0161E08E810E9473176AEF70E080E035
:1029300090E00E94A6160E946A1609851A852B85CA
:102940003C85601771078207930720F419861A8661
:102950001B861C862D85211111C009851A852B85A2
:102960003C85DC01CB01801B910BA20BB30B803D9E
:102970009740A105B10510F481E073C01D860E9447
:102980006A1669877A878B879C871C821B821A82CA
:102990001982188261E08E810E943B1760E08E816F
:1029A0000E94731764E170E080E090E00E94A61638
:1029B000F89461E08E810E94731788E290E00E9493
:1029C000CC1660E08E810E943B17F12CD12C81E067
:1029D00009C0E39481E090E00E94CC168FEFE812EA
:1029E00004C009C0E12C082F10E08E810E94AA17B4
:1029F0008017910771F38E810E94AA179FEFE91645
:102A0000C9F023E02F1590F4F0FC10C09D2D969591
:102A100096959695FE01E90FF11D9081990F90838F
:102A200028852E1510F491609083D394F39495E546
:102A3000F912D8CF789427E22D1590F42C8130E04C
:102A40004881898190E0840F911D4A81840F911DF6
:102A50004B81840F911D99272817390709F48CCFD2
:102A600080E0DF91CF911F910F91FF90EF90DF9069
:102A70000895EF92FF920F931F93CF93DF93EC0192
:102A80000E948914882391F18F818B3029F070F195
:102A90008551823058F507C0688170E080E090E091
:102AA0000E94901D2DC0688170E080E090E00E943F
:102AB000901D20E030E040E853E40E94461E7B0178
:102AC0008C01698170E080E090E00E94921D9B0182
:102AD000AC016E2D7F2D802F912F0E948F1C20E046
:102AE00030E040E251E40E94F71C0AC064E272E068
:102AF00085EC93E00E94A81860E070E080EC9FE70E
:102B0000DF91CF911F910F91FF90EF900895CF9299
:102B1000DF92EF92FF920F931F93CF93DF938C017D
:102B2000C62F0E948914882309F477C0F801878191
:102B30008B3039F008F471C08551823008F06DC0D7
:102B40001DC0F801628170E080E090E00E94901D5D
:102B5000B62FA72FF82FE92F462F572F682F792F41
:102B6000CB01BA01CC2309F462C020E030E040E19F
:102B700051E46B2F7A2F8F2F9E2F37C0F801D2810F
:102B80006D2F6F7770E080E090E00E94921D20E052
:102B900030E040E853E40E94461E6B017C01F801DE
:102BA000638170E080E090E00E94921D9B01AC0187
:102BB0006C2D7D2D8E2D9F2D0E948F1C20E030E0EE
:102BC00040E251E40E94F71C472F382F292F862F0F
:102BD000942FA32FB22FBC01CD01D7FD9058CC2349
:102BE00031F120E030E040E151E40E94461E20E057
:102BF00030E040EA50E40E94F71C20E030E040E082
:102C000052E40E948F1C472F382F292F862F942F94
:102C1000A32FB22FBC01CD010AC064E272E085ECA3
:102C200093E00E94A81860E070E080EC9FE7DF91DD
:102C3000CF911F910F91FF90EF90DF90CF9008956B
:102C40001F920F920FB60F9211242F933F938F93E1
:102C50009F93AF93BF938091B8039091B903A091D4
:102C6000BA03B091BB033091C003232F2D5F2D37E2
:102C700020F40196A11DB11D05C0232F2A570296ED
:102C8000A11DB11D2093C0038093B8039093B90395
:102C9000A093BA03B093BB038091BC039091BD0392
:102CA000A091BE03B091BF030196A11DB11D8093F9
:102CB000BC039093BD03A093BE03B093BF03BF9129
:102CC000AF919F918F913F912F910F900FBE0F90D9
:102CD0001F9018950F931F938FB7F8940091B80326
:102CE0001091B9032091BA033091BB038FBFB80193
:102CF000C9011F910F9108950F931F939FB7F894E7
:102D00000091BC031091BD032091BE033091BF031D
:102D100086B5A89B06C08F3F21F00F5F1F4F2F4F36
:102D20003F4F9FBF322F212F102F0027080F111D5B
:102D3000211D311D42E0000F111F221F331F4A9534
:102D4000D1F7B801C9011F910F910895CF92DF9279
:102D5000EF92FF92CF93DF936B017C010E947C1670
:102D6000EB010EC00E947C166C1B7D0B683E73400D
:102D700038F081E0C81AD108E108F108C851DC4FE9
:102D8000C114D104E104F10469F7DF91CF91FF9000
:102D9000EF90DF90CF900895019739F0880F991F39
:102DA000880F991F02970197F1F70895789484B5D9
:102DB000826084BD84B5816084BD85B5826085BD37
:102DC00085B5816085BDEEE6F0E08081816080831D
:102DD000E1E8F0E010828081826080838081816000
:102DE0008083E0E8F0E0808181608083E1EBF0E0C7
:102DF000808184608083E0EBF0E08081816080836B
:102E0000EAE7F0E080818460808380818260808353
:102E10008081816080838081806880831092C1007E
:102E20000895833069F028F48130A1F0823011F5E3
:102E300014C08630B1F08730C1F08430D9F404C0BA
:102E4000809180008F7703C0809180008F7D809378
:102E50008000089584B58F7702C084B58F7D84BDCE
:102E600008958091B0008F7703C08091B0008F7D6E
:102E70008093B0000895CF93DF9390E0FC01E45875
:102E8000FF4F4491FC01E057FF4F8491882341F1AB
:102E900090E0880F991FFC01E854FF4F2591349171
:102EA000D90182559F4FFC0185919491C82FD92F4C
:102EB0009FB7F8948C91611106C0409584238C9340
:102EC0008881842308C0623041F4242F2095822316
:102ED0008C938881842B888302C0842B8C939FBF22
:102EE000DF91CF9108950F931F93CF93DF931F929C
:102EF000CDB7DEB7282F30E0F901E859FF4F8491B4
:102F0000F901E458FF4F1491F901E057FF4F049184
:102F10000023D1F0882321F069830E941117698171
:102F2000E02FF0E0EE0FFF1FE255FF4F85919491E7
:102F3000DC019FB7F8948C91611103C01095812337
:102F400001C0812B8C939FBF0F90DF91CF911F9178
:102F50000F910895CF93DF93282F30E0F901E859BE
:102F6000FF4F8491F901E458FF4FD491F901E057E4
:102F7000FF4FC491CC2389F081110E941117EC2FCF
:102F8000F0E0EE0FFF1FEC55FF4F85919491DC01AF
:102F90008C918D2321E030E011F420E030E0C90174
:102FA000DF91CF9108958230E8F4E82FF0E0EE0F42
:102FB000FF1FEF53FC4F71836083813041F080919C
:102FC00069008C7F842B80936900E89A0895809132
:102FD0006900440F551F440F551F837F842B809336
:102FE0006900E99A0895823068F4813011F0E89818
:102FF00001C0E998E82FF0E0EE0FFF1FEF53FC4F00
:103000001182108208951F920F920FB60F92112411
:103010002F933F934F935F936F937F938F939F93E0
:10302000AF93BF93EF93FF938091C1039091C2033D
:10303000892B29F0E091C103F091C2030995FF911A
:10304000EF91BF91AF919F918F917F916F915F9120
:103050004F913F912F910F900FBE0F901F90189599
:103060001F920F920FB60F9211242F933F934F93FD
:103070005F936F937F938F939F93AF93BF93EF93E0
:10308000FF938091C3039091C403892B29F0E091B1
:10309000C303F091C4030995FF91EF91BF91AF91E4
:1030A0009F918F917F916F915F914F913F912F9160
:1030B0000F900FBE0F901F9018950E94D6160E9479
:1030C0003501C3E7DBE10E94BB042097E1F30E94D6
:1030D000731BF9CFCF92DF92EF92FF920F931F9362
:1030E000CF93DF936C01EB017A01E60EF71E00E04F
:1030F00010E00BC06991D601ED91FC910190F08137
:10310000E02DC6010995080F191FCE15DF0591F7AF
:10311000C801DF91CF911F910F91FF90EF90DF9049
:10312000CF9008956115710581F0DB010D900020AD
:10313000E9F7AD0141505109461B570BDC01ED91F8
:10314000FC910280F381E02D099480E090E00895E5
:103150000C949218DC01ED91FC910190F081E02D2E
:1031600009940F931F93CF93DF93EC016DE00E94BE
:10317000AA188C016AE0CE010E94AA189C01200FB7
:10318000311FC901DF91CF911F910F9108950F93C6
:103190001F93CF93DF93EC010E9492188C01CE0114
:1031A0000E94B1189801280F391FC901DF91CF91F2
:1031B0001F910F9108954F925F926F927F929F920D
:1031C000AF92BF92CF92DF92EF92FF920F931F9335
:1031D000CF93DF93CDB7DEB7A1970FB6F894DEBFDC
:1031E0000FBECDBF5C016A017B01922E19A281E066
:1031F000821710F08AE0982E8E010F5D1F4F492C28
:10320000512C612C712CC701B601A30192010E94BF
:10321000041F8C2D929E80191124015011098A30AF
:1032200014F4805D01C0895CF801808369017A0132
:10323000C114D104E104F10431F7B801C5010E94C1
:103240009218A1960FB6F894DEBF0FBECDBFDF91E6
:10325000CF911F910F91FF90EF90DF90CF90BF9093
:10326000AF909F907F906F905F904F900895211541
:10327000310541F4DC01ED91FC910190F081E02DEC
:10328000642F09940C94DB189A01AB0160E070E0A4
:103290000C9437199A01462F50E060E070E00C94CE
:1032A0003719CF92DF92EF92FF920F931F93CF9334
:1032B000DF93EC016A017B012115310579F4E88186
:1032C000F9810190F081E02D642FDF91CF911F9162
:1032D0000F91FF90EF90DF90CF9009942A30310545
:1032E00019F477FD0EC02AE0B701A601CE01DF91E7
:1032F000CF911F910F91FF90EF90DF90CF900C94A2
:10330000DB186DE20E94AA188C0144275527BA01E8
:103310004C195D096E097F092AE0CE010E94DB1875
:10332000080F191FC801DF91CF911F910F91FF90D6
:10333000EF90DF90CF9008959A01AB01662757FD7B
:103340006095762F0C9451197F928F929F92AF9235
:10335000BF92CF92DF92EF92FF920F931F93CF9382
:10336000DF93EC016A017B01122F9A01AB01C701C7
:10337000B6010E94A91E882319F06EE272E032C0E5
:1033800046015701E894B7F82FEF3FEF4FE75FE7AB
:10339000C501B4010E94A91E81110DC02FEF3FEF9E
:1033A0004FE75FE7C501B4010E94F31C18161CF437
:1033B00062E372E017C02FEF3FEF4FE75FE4C70112
:1033C000B6010E94421E18160CF40AC02FEF3FEF00
:1033D0004FE75FECC701B6010E94F31C87FF12C0E4
:1033E00066E372E0CE01DF91CF911F910F91FF90C4
:1033F000EF90DF90CF90BF90AF909F908F907F9095
:103400000C94921820E030E0A901C701B6010E9497
:10341000F31C87FF0AC06DE2CE010E94AA185C016E
:10342000F7FAF094F7F8F09402C0A12CB12C00E068
:1034300060E070E080E09FE307C020E030E040E221
:1034400051E40E94F71C0F5F0113F7CF262F372F8F
:10345000482F592FC701B6010E948F1C762E872E48
:10346000982EC92E0E94641DD62EE72EF82E092F05
:103470000E94901D9B01AC01672D782D892D9C2DFC
:103480000E948E1CC62E972E882E792E2AE04D2D56
:103490005E2D6F2D702FCE010E94DB187C01EA0C8F
:1034A000FB1C1123B9F16BE871E0CE010E94921868
:1034B000E80EF91E2FC020E030E040E251E46C2D10
:1034C000792D882D972D0E94461E762E072F6C0190
:1034D0009D2D0E945F1D4B01AA2497FCA094BA2C3D
:1034E0002AE030E0B501A401CE010E945119E80E96
:1034F000F91EC501B4010E94921D9B01AC01672D0C
:10350000702F8C2D9D2D0E948E1CC62E972E882EDE
:10351000792E11501111CFCFC701DF91CF911F919B
:103520000F91FF90EF90DF90CF90BF90AF909F9062
:103530008F907F9008950C94A419FC018485958543
:10354000FC01E05CFF4F20813181FC01EE5BFF4F0D
:1035500080819181281B390B2F733327C90108956E
:10356000FC0184859585FC01E05CFF4F4081518121
:10357000FC01EE5BFF4F208131814217530741F080
:103580000190F081E02DE80FF91F208130E002C0AA
:103590002FEF3FEFC9010895FC0184859585FC015B
:1035A000E05CFF4F40815181FC01EE5BFF4F2081C9
:1035B00031814217530781F0A081B181A80FB91F53
:1035C0008C91208131812F5F3F4F2F7333273183BF
:1035D0002083282F30E002C02FEF3FEFC90108956C
:1035E000FC0181A1882329F0A489B5898C9186FFEB
:1035F000FBCF11A20895CF93DF93FC012685378579
:10360000D901A05CBF4F8D919C91119701968F734A
:103610009927E901CE5BDF4F4881598184179507CF
:10362000D9F30D90BC91A02DA20FB31F6C93A6856A
:10363000B785A05CBF4F11969C938E93A689B789DE
:103640002C9181E090E0078C02C0880F991F0A94AA
:10365000E2F7282B2C9381E081A30488F589E02DE3
:1036600080818064808381E090E0DF91CF91089534
:1036700008951F920F920FB60F9211242F933F932C
:103680004F938F939F93EF93FF938091C00082FDA0
:103690001CC04091C60080916B0490916C0401960F
:1036A0008F73992720916D0430916E0482179307D0
:1036B00071F0E0916B04F0916C04E55DFB4F408389
:1036C00090936C0480936B0402C08091C600FF91BC
:1036D000EF919F918F914F913F912F910F900FBE3E
:1036E0000F901F90189585EC93E00E949D1A892BEE
:1036F00011F00C94381B08951F920F920FB60F9281
:1037000011242F933F938F939F93EF93FF932091D7
:103710002704309128048091290490912A042817C5
:10372000390731F48091C1008F7D8093C10014C0AE
:10373000E0912904F0912A04E951FC4F2081809105
:10374000290490912A0401968F73992790932A0453
:10375000809329042093C600FF91EF919F918F9150
:103760003F912F910F900FBE0F901F901895CF9201
:10377000DF92EF92FF92CF93DF93EC016A017B011E
:10378000411581EE580761057105F9F0EC89FD8955
:1037900081E090E008A002C0880F991F0A94E2F728
:1037A000808360E079E08DE390E0A70196010E94BC
:1037B000041F215031094109510956954795379504
:1037C0002795211580E1380798F0EC89FD89108252
:1037D00060E874E88EE190E0A70196010E94041F62
:1037E000215031094109510956954795379527953B
:1037F000E889F9893083EA89FB89208319A2EE8957
:10380000FF89408181E090E09C010C8C02C0220F76
:10381000331F0A94E2F7422B4083EE89FF894081EF
:103820009C010D8C02C0220F331F0A94E2F7422B39
:103830004083EE89FF8940819C010E8C02C0220FDB
:10384000331F0A94E2F7422B4083EE89FF892081DF
:103850000F8C02C0880F991F0A94E2F7809582238B
:103860008083DF91CF91FF90EF90DF90CF9008950C
:103870001092C8031092C70388EE93E0A0E0B0E076
:103880008093C9039093CA03A093CB03B093CC0356
:103890008EE392E09093C6038093C5038BE294E09D
:1038A0009093D2038093D10387EE93E09093D40357
:1038B0008093D30385EC90E09093D6038093D50357
:1038C00084EC90E09093D8038093D70380EC90E051
:1038D0009093DA038093D90381EC90E09093DC031A
:1038E0008093DB0382EC90E09093DE038093DD0312
:1038F00086EC90E09093E0038093DF0384E0809374
:10390000E10383E08093E20387E08093E30385E0B3
:103910008093E40381E08093E50308955058BB272A
:10392000AA270ED075C166D130F06BD120F031F4EA
:103930009F3F11F41EF45BC10EF4E095E7FB51C10B
:10394000E92F77D180F3BA176207730784079507C9
:1039500018F071F49EF58FC10EF4E0950B2EBA2F7E
:10396000A02D0B01B90190010C01CA01A001112485
:10397000FF27591B99F0593F50F4503E68F11A1631
:10398000F040A22F232F342F4427585FF3CF4695C2
:1039900037952795A795F0405395C9F77EF41F16E4
:1039A000BA0B620B730B840BBAF09150A1F0FF0FAE
:1039B000BB1F661F771F881FC2F70EC0BA0F621F9A
:1039C000731F841F48F4879577956795B795F7958A
:1039D0009E3F08F0B3CF9395880F08F09927EE0F1C
:1039E000979587950895D9D008F481E008950CD073
:1039F0000FC107D140F0FED030F021F45F3F19F045
:103A0000F0C0511139C1F3C014D198F39923C9F30F
:103A10005523B1F3951B550BBB27AA2762177307D4
:103A2000840738F09F5F5F4F220F331F441FAA1F88
:103A3000A9F333D00E2E3AF0E0E830D09150504048
:103A4000E695001CCAF729D0FE2F27D0660F771FF6
:103A5000881FBB1F261737074807AB07B0E809F0D8
:103A6000BB0B802DBF01FF2793585F4F2AF09E3F6D
:103A7000510568F0B6C000C15F3FECF3983EDCF33F
:103A8000869577956795B795F7959F5FC9F7880FE6
:103A9000911D9695879597F90895E1E0660F771F38
:103AA000881FBB1F621773078407BA0720F0621BC9
:103AB000730B840BBA0BEE1F88F7E095089504D0C2
:103AC0006894B111D9C00895BCD088F09F5790F088
:103AD000B92F9927B751A0F0D1F0660F771F881F33
:103AE000991F1AF0BA95C9F712C0B13081F0C3D04E
:103AF000B1E00895C0C0672F782F8827B85F39F0EC
:103B0000B93FCCF3869577956795B395D9F73EF491
:103B100090958095709561957F4F8F4F9F4F089539
:103B2000E89409C097FB3EF4909580957095619557
:103B30007F4F8F4F9F4F9923A9F0F92F96E9BB270D
:103B40009395F695879577956795B795F111F8CF89
:103B5000FAF4BB0F11F460FF1BC06F5F7F4F8F4FF4
:103B60009F4F16C0882311F096E911C0772321F0EA
:103B70009EE8872F762F05C0662371F096E8862F82
:103B800070E060E02AF09A95660F771F881FDAF7D9
:103B9000880F9695879597F90895990F0008550F06
:103BA000AA0BE0E8FEEF16161706E807F907C0F0C3
:103BB00012161306E407F50798F0621B730B840BCB
:103BC000950B39F40A2661F0232B242B252B21F4A5
:103BD00008950A2609F4A140A6958FEF811D811D45
:103BE000089597F99F6780E870E060E008959FEF7F
:103BF00080EC089500240A94161617061806090684
:103C0000089500240A941216130614060506089552
:103C1000092E0394000C11F4882352F0BB0F40F4DA
:103C2000BF2B11F460FF04C06F5F7F4F8F4F9F4F1A
:103C3000089557FD9058440F551F59F05F3F71F09C
:103C40004795880F97FB991F61F09F3F79F0879503
:103C50000895121613061406551FF2CF4695F1DF8C
:103C600008C0161617061806991FF1CF869571051C
:103C7000610508940895E894BB2766277727CB0150
:103C800097F908958ADF08F48FEF08950BD0C0CF1D
:103C9000B1DF28F0B6DF18F0952309F0A2CFA7CF47
:103CA0001124EACFC6DFA0F3959FD1F3950F50E022
:103CB000551F629FF001729FBB27F00DB11D639FDE
:103CC000AA27F00DB11DAA1F649F6627B00DA11D84
:103CD000661F829F2227B00DA11D621F739FB00D2A
:103CE000A11D621F839FA00D611D221F749F33279A
:103CF000A00D611D231F849F600D211D822F762F33
:103D00006A2F11249F5750408AF0E1F088234AF02F
:103D1000EE0FFF1FBB1F661F771F881F915050407B
:103D2000A9F79E3F510570F05CCFA6CF5F3FECF343
:103D3000983EDCF3869577956795B795F795E79567
:103D40009F5FC1F7FE2B880F911D9695879597F978
:103D5000089523DF880B990B0895A29FB001B39FAC
:103D6000C001A39F01D0B29F700D811D1124911D30
:103D700008950E94AD1EA59F900DB49F900DA49F25
:103D8000800D911D11240895B7FF0C94B91E0E9457
:103D9000B91E821B930B0895DB018F939F930E94A2
:103DA000B91EBF91AF91A29F800D911DA39F900D51
:103DB000B29F900D11240895AA1BBB1B51E107C0AF
:103DC000AA1FBB1FA617B70710F0A61BB70B881FAB
:103DD000991F5A95A9F780959095BC01CD0108953A
:103DE00097FB072E16F4009407D077FD09D00E94A8
:103DF000DC1E07FC05D03EF4909581959F4F0895F9
:103E0000709561957F4F0895A1E21A2EAA1BBB1BE6
:103E1000FD010DC0AA1FBB1FEE1FFF1FA217B30796
:103E2000E407F50720F0A21BB30BE40BF50B661FAC
:103E3000771F881F991F1A9469F760957095809570
:103E400090959B01AC01BD01CF010895052E97FB14
:103E500016F4009407D057FD0DD00E94041F07FCF4
:103E600009D07EF490958095709561957F4F8F4F26
:103E70009F4F089550954095309521953F4F4F4F56
:103E80005F4F0895EE0FFF1F0590F491E02D099408
:103E9000FB01DC0102C001900D9241505040D8F767
:103EA0000895FB01DC010D900020E9F711970190C6
:103EB0000D920020E1F70895A0E1B0E0E2E6FFE115
:103EC0000C9419220F89188D898D9A8D26E02C83E8
:103ED0001A83098397FF02C080E090E801979E83D0
:103EE0008D83AE01435E5F4F588B4F876B8D7C8D0A
:103EF000CE0101960E948E1F4D815E8157FD0AC042
:103F00002F813885421753070CF49A01F801E20F0C
:103F1000F31F10826096E4E00C943522ACE0B0E030
:103F2000E4E9FFE10C940B227C016B018A01FC01A6
:103F300017821682838181FFC7C188248394912CC4
:103F40008C0E9D1EF7019381F60193FD859193FFE1
:103F500081916F01882309F4B3C1853239F493FD4F
:103F6000859193FF81916F01853229F4B70190E02B
:103F70000E948121E7CF712C312C20E02032A8F45F
:103F80008B3261F028F4803251F0833271F40BC02F
:103F90008D3239F0803349F4216028C022602460DA
:103FA00025C0286023C0206121C027FD27C0382FED
:103FB00030533A3078F426FF06C0FAE07F9E300D89
:103FC0001124732E13C08AE0389E300D1124332E35
:103FD00020620CC08E3221F426FD72C1206406C01E
:103FE0008C3611F4206802C0883641F4F60193FD46
:103FF000859193FF81916F018111C0CF982F9554C6
:10400000933018F09052933028F40C5F1F4FFFE369
:10401000F9830DC0833631F0833771F0833509F0B1
:104020005EC023C0F801808189830E5F1F4F662424
:104030006394712C540115C02801F2E04F0E511CFD
:10404000F801A080B18026FF03C0672D70E002C098
:104050006FEF7FEFC5012C870E9476213C01820122
:104060002C856FE7262E222218C02801F2E04F0E81
:10407000511CF801A080B18026FF03C0672D70E0BD
:1040800002C06FEF7FEFC5012C870E946B213C01BE
:104090002C8550E8252E222A820123FC1CC006C054
:1040A000B70180E290E00E9481213A94832D90E054
:1040B00068167906A8F30FC0F50127FC859127FE45
:1040C00081915F01B70190E00E94812131103A9403
:1040D000F1E06F1A71086114710471F7EEC0843653
:1040E00011F0893641F5F80127FF07C06081718121
:1040F000828193810C5F1F4F08C060817181882786
:1041000077FD8095982F0E5F1F4F4FE6642E622239
:1041100097FF09C090958095709561957F4F8F4F5F
:104120009F4FF0E86F2A2AE030E0A4010E94AD2101
:10413000A82EA81844C0853731F43FEEB32EB22222
:104140002AE030E024C099EFB92EB2228F36B9F0C0
:1041500020F4883509F0B4C00DC0803721F08837CD
:1041600009F0AEC002C020E1B22AB4FE0BC084E068
:10417000B82A08C024FF09C0E6E0BE2A06C028E02D
:1041800030E005C020E130E002C020E132E0F8017B
:10419000B7FE07C060817181828193810C5F1F4FE0
:1041A00006C06081718180E090E00E5F1F4FA40126
:1041B0000E94AD21A82EA8188FE7682E6B2066FEFE
:1041C0000BC0362D3E7FA71450F464FE0AC062FC7B
:1041D00008C0362D3E7E05C0BA2C362D03C0BA2C41
:1041E00001C0B72C34FF0DC0FE01EA0DF11D808126
:1041F000803311F4397E09C032FF06C0B394B39402
:1042000004C0832F867809F0B39433FD14C030FFC7
:104210000FC07A2CB31460F4730C7B18B32C08C055
:10422000B70180E290E03C870E948121B3943C85F5
:10423000B314B0F304C0B31410F43B1801C0312C14
:1042400034FF12C0B70180E390E03C870E948121D7
:104250003C8532FF1EC031FF03C088E590E002C0FC
:1042600088E790E0B7010CC0832F867891F031FD8C
:1042700002C080E201C08BE237FD8DE2B70190E021
:104280000E94812106C0B70180E390E00E94812155
:104290007A94A714C0F3AA94F401EA0DF11DB701B2
:1042A000808190E00E948121A110F5CF06C0B70166
:1042B00080E290E00E9481213A943110F8CF42CE02
:1042C000F7012681378102C02FEF3FEFC9012C96FD
:1042D000E2E10C942722FC0105906150704001102E
:1042E000D8F7809590958E0F9F1F0895FC0161501F
:1042F000704001900110D8F7809590958E0F9F1F08
:1043000008950F931F93CF93DF938C01EB018B8163
:1043100081FD03C00FEF1FEF1AC082FF0DC02E8179
:104320003F818C819D812817390764F4E881F981E8
:104330000193F983E88306C0E885F985802F099504
:10434000892B41F78E819F8101969F838E83C801BF
:10435000DF91CF911F910F910895FA01AA2728307C
:1043600051F1203181F1E8946F936E7F6E5F7F4F42
:104370008F4F9F4FAF4FB1E03ED0B4E03CD0670FBE
:10438000781F891F9A1FA11D680F791F8A1F911D11
:10439000A11D6A0F711D811D911DA11D20D009F461
:1043A00068943F912AE0269F11243019305D3193A3
:1043B000DEF6CF010895462F4770405D4193B3E08C
:1043C0000FD0C9F7F6CF462F4F70405D4A3318F033
:1043D000495D31FD4052419302D0A9F7EACFB4E0E4
:1043E000A6959795879577956795BA95C9F700979C
:1043F0006105710508959B01AC010A2E069457953D
:10440000479537952795BA95C9F7620F731F841F93
:10441000951FA01D08952F923F924F925F926F9229
:104420007F928F929F92AF92BF92CF92DF92EF9244
:10443000FF920F931F93CF93DF93CDB7DEB7CA1BC5
:10444000DB0B0FB6F894DEBF0FBECDBF09942A88F0
:10445000398848885F846E847D848C849B84AA8498
:10446000B984C884DF80EE80FD800C811B81AA8125
:10447000B981CE0FD11D0FB6F894DEBF0FBECDBFF0
:08448000ED010895F894FFCF4F
:10448800881300000A022C010000C201C601CA01FB
:10449800CE01D201D601DA01DE01E201E601EA012C
:1044A800EE01F201F601FA01FE014E525320413DA0
:1044B8000020553D470020553D0020433D6F66666E
:1044C8000020433D6F6E0020433D64696D00204429
:1044D8003D0020503D000A5B776561746865727322
:1044E800746174696F6E46534B5F424D5030383576
:1044F8005F44485432325F34333372785D0A002D9A
:10450800003A0044434620002564002E003000573E
:1045180053342049443D002072656C483D002057C3
:1045280076656C3D0020576D61783D0020576469C1
:10453800723D00205261696E3D0057533320494453
:104548003D004E2020004E4E45004E452000454E71
:10455800450045202000455345005345200053534E
:1045680045005320200053535700535720005753FA
:10457800570057202000574E57004E5720004E4EE8
:104588005700424D5020543D0044485420543D208B
:104598000020483D003402561F1C1F1E1F1E1F1FEF
:1045A8001E1F1E1F52656164206661696C006E6182
:1045B8006E00696E66006F76660000000000FB1AE8
:0A45C8006A189D1ACC1AB01AF01AF6
:00000001FF
